{
  "_format": "hh-sol-artifact-1",
  "contractName": "DocuMinter",
  "sourceName": "contracts/DocuMinter.sol",
  "abi": [
    {
      "inputs": [],
      "stateMutability": "nonpayable",
      "type": "constructor"
    },
    {
      "inputs": [],
      "name": "DocuMinter__NoDocumentsMinted",
      "type": "error"
    },
    {
      "inputs": [],
      "name": "DocuMinter__NotAuthorizedToOperate",
      "type": "error"
    },
    {
      "inputs": [
        {
          "internalType": "address",
          "name": "sender",
          "type": "address"
        },
        {
          "internalType": "uint256",
          "name": "tokenId",
          "type": "uint256"
        },
        {
          "internalType": "address",
          "name": "owner",
          "type": "address"
        }
      ],
      "name": "ERC721IncorrectOwner",
      "type": "error"
    },
    {
      "inputs": [
        {
          "internalType": "address",
          "name": "operator",
          "type": "address"
        },
        {
          "internalType": "uint256",
          "name": "tokenId",
          "type": "uint256"
        }
      ],
      "name": "ERC721InsufficientApproval",
      "type": "error"
    },
    {
      "inputs": [
        {
          "internalType": "address",
          "name": "approver",
          "type": "address"
        }
      ],
      "name": "ERC721InvalidApprover",
      "type": "error"
    },
    {
      "inputs": [
        {
          "internalType": "address",
          "name": "operator",
          "type": "address"
        }
      ],
      "name": "ERC721InvalidOperator",
      "type": "error"
    },
    {
      "inputs": [
        {
          "internalType": "address",
          "name": "owner",
          "type": "address"
        }
      ],
      "name": "ERC721InvalidOwner",
      "type": "error"
    },
    {
      "inputs": [
        {
          "internalType": "address",
          "name": "receiver",
          "type": "address"
        }
      ],
      "name": "ERC721InvalidReceiver",
      "type": "error"
    },
    {
      "inputs": [
        {
          "internalType": "address",
          "name": "sender",
          "type": "address"
        }
      ],
      "name": "ERC721InvalidSender",
      "type": "error"
    },
    {
      "inputs": [
        {
          "internalType": "uint256",
          "name": "tokenId",
          "type": "uint256"
        }
      ],
      "name": "ERC721NonexistentToken",
      "type": "error"
    },
    {
      "inputs": [
        {
          "internalType": "address",
          "name": "owner",
          "type": "address"
        }
      ],
      "name": "OwnableInvalidOwner",
      "type": "error"
    },
    {
      "inputs": [
        {
          "internalType": "address",
          "name": "account",
          "type": "address"
        }
      ],
      "name": "OwnableUnauthorizedAccount",
      "type": "error"
    },
    {
      "anonymous": false,
      "inputs": [
        {
          "indexed": true,
          "internalType": "address",
          "name": "owner",
          "type": "address"
        },
        {
          "indexed": true,
          "internalType": "address",
          "name": "approved",
          "type": "address"
        },
        {
          "indexed": true,
          "internalType": "uint256",
          "name": "tokenId",
          "type": "uint256"
        }
      ],
      "name": "Approval",
      "type": "event"
    },
    {
      "anonymous": false,
      "inputs": [
        {
          "indexed": true,
          "internalType": "address",
          "name": "owner",
          "type": "address"
        },
        {
          "indexed": true,
          "internalType": "address",
          "name": "operator",
          "type": "address"
        },
        {
          "indexed": false,
          "internalType": "bool",
          "name": "approved",
          "type": "bool"
        }
      ],
      "name": "ApprovalForAll",
      "type": "event"
    },
    {
      "anonymous": false,
      "inputs": [
        {
          "indexed": true,
          "internalType": "address",
          "name": "previousOwner",
          "type": "address"
        },
        {
          "indexed": true,
          "internalType": "address",
          "name": "newOwner",
          "type": "address"
        }
      ],
      "name": "OwnershipTransferred",
      "type": "event"
    },
    {
      "anonymous": false,
      "inputs": [
        {
          "indexed": true,
          "internalType": "address",
          "name": "from",
          "type": "address"
        },
        {
          "indexed": true,
          "internalType": "address",
          "name": "to",
          "type": "address"
        },
        {
          "indexed": true,
          "internalType": "uint256",
          "name": "tokenId",
          "type": "uint256"
        }
      ],
      "name": "Transfer",
      "type": "event"
    },
    {
      "inputs": [
        {
          "internalType": "address",
          "name": "to",
          "type": "address"
        },
        {
          "internalType": "uint256",
          "name": "tokenId",
          "type": "uint256"
        }
      ],
      "name": "approve",
      "outputs": [],
      "stateMutability": "nonpayable",
      "type": "function"
    },
    {
      "inputs": [
        {
          "internalType": "address",
          "name": "owner",
          "type": "address"
        }
      ],
      "name": "balanceOf",
      "outputs": [
        {
          "internalType": "uint256",
          "name": "",
          "type": "uint256"
        }
      ],
      "stateMutability": "view",
      "type": "function"
    },
    {
      "inputs": [
        {
          "internalType": "uint256",
          "name": "_tokenId",
          "type": "uint256"
        }
      ],
      "name": "burnDoc",
      "outputs": [],
      "stateMutability": "nonpayable",
      "type": "function"
    },
    {
      "inputs": [
        {
          "internalType": "address",
          "name": "_receiver",
          "type": "address"
        },
        {
          "internalType": "uint256",
          "name": "_tokenId",
          "type": "uint256"
        }
      ],
      "name": "conductTransfer",
      "outputs": [],
      "stateMutability": "nonpayable",
      "type": "function"
    },
    {
      "inputs": [
        {
          "internalType": "uint256",
          "name": "tokenId",
          "type": "uint256"
        }
      ],
      "name": "getApproved",
      "outputs": [
        {
          "internalType": "address",
          "name": "",
          "type": "address"
        }
      ],
      "stateMutability": "view",
      "type": "function"
    },
    {
      "inputs": [
        {
          "internalType": "address",
          "name": "owner",
          "type": "address"
        },
        {
          "internalType": "address",
          "name": "operator",
          "type": "address"
        }
      ],
      "name": "isApprovedForAll",
      "outputs": [
        {
          "internalType": "bool",
          "name": "",
          "type": "bool"
        }
      ],
      "stateMutability": "view",
      "type": "function"
    },
    {
      "inputs": [
        {
          "internalType": "string",
          "name": "_tokenURI",
          "type": "string"
        }
      ],
      "name": "mintDoc",
      "outputs": [
        {
          "internalType": "uint256",
          "name": "",
          "type": "uint256"
        }
      ],
      "stateMutability": "nonpayable",
      "type": "function"
    },
    {
      "inputs": [],
      "name": "name",
      "outputs": [
        {
          "internalType": "string",
          "name": "",
          "type": "string"
        }
      ],
      "stateMutability": "view",
      "type": "function"
    },
    {
      "inputs": [],
      "name": "owner",
      "outputs": [
        {
          "internalType": "address",
          "name": "",
          "type": "address"
        }
      ],
      "stateMutability": "view",
      "type": "function"
    },
    {
      "inputs": [
        {
          "internalType": "uint256",
          "name": "tokenId",
          "type": "uint256"
        }
      ],
      "name": "ownerOf",
      "outputs": [
        {
          "internalType": "address",
          "name": "",
          "type": "address"
        }
      ],
      "stateMutability": "view",
      "type": "function"
    },
    {
      "inputs": [
        {
          "internalType": "address",
          "name": "ownerAddress",
          "type": "address"
        }
      ],
      "name": "owns",
      "outputs": [
        {
          "internalType": "uint256[]",
          "name": "",
          "type": "uint256[]"
        }
      ],
      "stateMutability": "view",
      "type": "function"
    },
    {
      "inputs": [],
      "name": "renounceOwnership",
      "outputs": [],
      "stateMutability": "nonpayable",
      "type": "function"
    },
    {
      "inputs": [
        {
          "internalType": "address",
          "name": "from",
          "type": "address"
        },
        {
          "internalType": "address",
          "name": "to",
          "type": "address"
        },
        {
          "internalType": "uint256",
          "name": "tokenId",
          "type": "uint256"
        }
      ],
      "name": "safeTransferFrom",
      "outputs": [],
      "stateMutability": "nonpayable",
      "type": "function"
    },
    {
      "inputs": [
        {
          "internalType": "address",
          "name": "from",
          "type": "address"
        },
        {
          "internalType": "address",
          "name": "to",
          "type": "address"
        },
        {
          "internalType": "uint256",
          "name": "tokenId",
          "type": "uint256"
        },
        {
          "internalType": "bytes",
          "name": "data",
          "type": "bytes"
        }
      ],
      "name": "safeTransferFrom",
      "outputs": [],
      "stateMutability": "nonpayable",
      "type": "function"
    },
    {
      "inputs": [
        {
          "internalType": "address",
          "name": "operator",
          "type": "address"
        },
        {
          "internalType": "bool",
          "name": "approved",
          "type": "bool"
        }
      ],
      "name": "setApprovalForAll",
      "outputs": [],
      "stateMutability": "nonpayable",
      "type": "function"
    },
    {
      "inputs": [
        {
          "internalType": "string",
          "name": "baseURI_",
          "type": "string"
        }
      ],
      "name": "setBaseURI",
      "outputs": [],
      "stateMutability": "nonpayable",
      "type": "function"
    },
    {
      "inputs": [
        {
          "internalType": "bytes4",
          "name": "interfaceId",
          "type": "bytes4"
        }
      ],
      "name": "supportsInterface",
      "outputs": [
        {
          "internalType": "bool",
          "name": "",
          "type": "bool"
        }
      ],
      "stateMutability": "view",
      "type": "function"
    },
    {
      "inputs": [],
      "name": "symbol",
      "outputs": [
        {
          "internalType": "string",
          "name": "",
          "type": "string"
        }
      ],
      "stateMutability": "view",
      "type": "function"
    },
    {
      "inputs": [
        {
          "internalType": "uint256",
          "name": "tokenId",
          "type": "uint256"
        }
      ],
      "name": "tokenURI",
      "outputs": [
        {
          "internalType": "string",
          "name": "",
          "type": "string"
        }
      ],
      "stateMutability": "view",
      "type": "function"
    },
    {
      "inputs": [],
      "name": "totalMinted",
      "outputs": [
        {
          "internalType": "uint256",
          "name": "",
          "type": "uint256"
        }
      ],
      "stateMutability": "view",
      "type": "function"
    },
    {
      "inputs": [
        {
          "internalType": "address",
          "name": "from",
          "type": "address"
        },
        {
          "internalType": "address",
          "name": "to",
          "type": "address"
        },
        {
          "internalType": "uint256",
          "name": "tokenId",
          "type": "uint256"
        }
      ],
      "name": "transferFrom",
      "outputs": [],
      "stateMutability": "nonpayable",
      "type": "function"
    },
    {
      "inputs": [
        {
          "internalType": "address",
          "name": "newOwner",
          "type": "address"
        }
      ],
      "name": "transferOwnership",
      "outputs": [],
      "stateMutability": "nonpayable",
      "type": "function"
    }
  ],
  "bytecode": "0x60806040523480156200001157600080fd5b506040518060400160405280600a81526020017f446f63754d696e746564000000000000000000000000000000000000000000008152506040518060400160405280600581526020017f44434d4e5400000000000000000000000000000000000000000000000000000081525033600073ffffffffffffffffffffffffffffffffffffffff168173ffffffffffffffffffffffffffffffffffffffff1603620000f45760006040517f1e4fbdf7000000000000000000000000000000000000000000000000000000008152600401620000eb919062000243565b60405180910390fd5b62000105816200013a60201b60201c565b508160019081620001179190620004da565b508060029081620001299190620004da565b5050506000600781905550620005c1565b60008060009054906101000a900473ffffffffffffffffffffffffffffffffffffffff169050816000806101000a81548173ffffffffffffffffffffffffffffffffffffffff021916908373ffffffffffffffffffffffffffffffffffffffff1602179055508173ffffffffffffffffffffffffffffffffffffffff168173ffffffffffffffffffffffffffffffffffffffff167f8be0079c531659141344cd1fd0a4f28419497f9722a3daafe3b4186f6b6457e060405160405180910390a35050565b600073ffffffffffffffffffffffffffffffffffffffff82169050919050565b60006200022b82620001fe565b9050919050565b6200023d816200021e565b82525050565b60006020820190506200025a600083018462000232565b92915050565b600081519050919050565b7f4e487b7100000000000000000000000000000000000000000000000000000000600052604160045260246000fd5b7f4e487b7100000000000000000000000000000000000000000000000000000000600052602260045260246000fd5b60006002820490506001821680620002e257607f821691505b602082108103620002f857620002f76200029a565b5b50919050565b60008190508160005260206000209050919050565b60006020601f8301049050919050565b600082821b905092915050565b600060088302620003627fffffffffffffffffffffffffffffffffffffffffffffffffffffffffffffffff8262000323565b6200036e868362000323565b95508019841693508086168417925050509392505050565b6000819050919050565b6000819050919050565b6000620003bb620003b5620003af8462000386565b62000390565b62000386565b9050919050565b6000819050919050565b620003d7836200039a565b620003ef620003e682620003c2565b84845462000330565b825550505050565b600090565b62000406620003f7565b62000413818484620003cc565b505050565b5b818110156200043b576200042f600082620003fc565b60018101905062000419565b5050565b601f8211156200048a576200045481620002fe565b6200045f8462000313565b810160208510156200046f578190505b620004876200047e8562000313565b83018262000418565b50505b505050565b600082821c905092915050565b6000620004af600019846008026200048f565b1980831691505092915050565b6000620004ca83836200049c565b9150826002028217905092915050565b620004e58262000260565b67ffffffffffffffff8111156200050157620005006200026b565b5b6200050d8254620002c9565b6200051a8282856200043f565b600060209050601f8311600181146200055257600084156200053d578287015190505b620005498582620004bc565b865550620005b9565b601f1984166200056286620002fe565b60005b828110156200058c5784890151825560018201915060208501945060208101905062000565565b86831015620005ac5784890151620005a8601f8916826200049c565b8355505b6001600288020188555050505b505050505050565b61314980620005d16000396000f3fe608060405234801561001057600080fd5b50600436106101425760003560e01c80637802c5db116100b8578063a2309ff81161007c578063a2309ff81461035f578063b88d4fde1461037d578063c87b56dd14610399578063e985e9c5146103c9578063f2fde38b146103f9578063f7bc39bf1461041557610142565b80637802c5db146102cf5780638da5cb5b146102eb57806395d89b41146103095780639cf1be6e14610327578063a22cb4651461034357610142565b806342842e0e1161010a57806342842e0e146101fd578063439a2bdb1461021957806355f804b3146102495780636352211e1461026557806370a0823114610295578063715018a6146102c557610142565b806301ffc9a71461014757806306fdde0314610177578063081812fc14610195578063095ea7b3146101c557806323b872dd146101e1575b600080fd5b610161600480360381019061015c919061240e565b610445565b60405161016e9190612456565b60405180910390f35b61017f610527565b60405161018c9190612501565b60405180910390f35b6101af60048036038101906101aa9190612559565b6105b9565b6040516101bc91906125c7565b60405180910390f35b6101df60048036038101906101da919061260e565b6105d5565b005b6101fb60048036038101906101f6919061264e565b6105eb565b005b6102176004803603810190610212919061264e565b6106ed565b005b610233600480360381019061022e91906127d6565b61070d565b604051610240919061282e565b60405180910390f35b610263600480360381019061025e91906127d6565b6107b3565b005b61027f600480360381019061027a9190612559565b6107ce565b60405161028c91906125c7565b60405180910390f35b6102af60048036038101906102aa9190612849565b6107e0565b6040516102bc919061282e565b60405180910390f35b6102cd61089a565b005b6102e960048036038101906102e49190612559565b6108ae565b005b6102f3610956565b60405161030091906125c7565b60405180910390f35b61031161097f565b60405161031e9190612501565b60405180910390f35b610341600480360381019061033c919061260e565b610a11565b005b61035d600480360381019061035891906128a2565b610b03565b005b610367610b19565b604051610374919061282e565b60405180910390f35b61039760048036038101906103929190612983565b610b23565b005b6103b360048036038101906103ae9190612559565b610b40565b6040516103c09190612501565b60405180910390f35b6103e360048036038101906103de9190612a06565b610d5e565b6040516103f09190612456565b60405180910390f35b610413600480360381019061040e9190612849565b610df2565b005b61042f600480360381019061042a9190612849565b610e78565b60405161043c9190612b04565b60405180910390f35b60007f80ac58cd000000000000000000000000000000000000000000000000000000007bffffffffffffffffffffffffffffffffffffffffffffffffffffffff1916827bffffffffffffffffffffffffffffffffffffffffffffffffffffffff1916148061051057507f5b5e139f000000000000000000000000000000000000000000000000000000007bffffffffffffffffffffffffffffffffffffffffffffffffffffffff1916827bffffffffffffffffffffffffffffffffffffffffffffffffffffffff1916145b80610520575061051f82610ff6565b5b9050919050565b60606001805461053690612b55565b80601f016020809104026020016040519081016040528092919081815260200182805461056290612b55565b80156105af5780601f10610584576101008083540402835291602001916105af565b820191906000526020600020905b81548152906001019060200180831161059257829003601f168201915b5050505050905090565b60006105c482611060565b506105ce826110e8565b9050919050565b6105e782826105e2611125565b61112d565b5050565b600073ffffffffffffffffffffffffffffffffffffffff168273ffffffffffffffffffffffffffffffffffffffff160361065d5760006040517f64a0ae9200000000000000000000000000000000000000000000000000000000815260040161065491906125c7565b60405180910390fd5b6000610671838361066c611125565b61113f565b90508373ffffffffffffffffffffffffffffffffffffffff168173ffffffffffffffffffffffffffffffffffffffff16146106e7578382826040517f64283d7b0000000000000000000000000000000000000000000000000000000081526004016106de93929190612b86565b60405180910390fd5b50505050565b61070883838360405180602001604052806000815250610b23565b505050565b60006001600760008282546107229190612bec565b9250508190555060006007549050600960003373ffffffffffffffffffffffffffffffffffffffff1673ffffffffffffffffffffffffffffffffffffffff1681526020019081526020016000208190806001815401808255809150506001900390600052602060002001600090919091909150556107a03382611359565b6107aa8184611377565b80915050919050565b6107bb61139c565b80600a90816107ca9190612dcc565b5050565b60006107d982611060565b9050919050565b60008073ffffffffffffffffffffffffffffffffffffffff168273ffffffffffffffffffffffffffffffffffffffff16036108535760006040517f89c62b6400000000000000000000000000000000000000000000000000000000815260040161084a91906125c7565b60405180910390fd5b600460008373ffffffffffffffffffffffffffffffffffffffff1673ffffffffffffffffffffffffffffffffffffffff168152602001908152602001600020549050919050565b6108a261139c565b6108ac6000611423565b565b3373ffffffffffffffffffffffffffffffffffffffff166108ce826107ce565b73ffffffffffffffffffffffffffffffffffffffff1603610921576108f2816114e7565b6008600082815260200190815260200160002060006109119190612345565b61091b338261156d565b50610953565b6040517fb174a97400000000000000000000000000000000000000000000000000000000815260040160405180910390fd5b50565b60008060009054906101000a900473ffffffffffffffffffffffffffffffffffffffff16905090565b60606002805461098e90612b55565b80601f01602080910402602001604051908101604052809291908181526020018280546109ba90612b55565b8015610a075780601f106109dc57610100808354040283529160200191610a07565b820191906000526020600020905b8154815290600101906020018083116109ea57829003601f168201915b5050505050905090565b3373ffffffffffffffffffffffffffffffffffffffff16610a31826107ce565b73ffffffffffffffffffffffffffffffffffffffff1603610acd57610a573383836117b8565b610a61338261156d565b50600960008373ffffffffffffffffffffffffffffffffffffffff1673ffffffffffffffffffffffffffffffffffffffff168152602001908152602001600020819080600181540180825580915050600190039060005260206000200160009091909190915055610aff565b6040517fb174a97400000000000000000000000000000000000000000000000000000000815260040160405180910390fd5b5050565b610b15610b0e611125565b83836117d8565b5050565b6000600754905090565b610b2e8484846105eb565b610b3a84848484611947565b50505050565b6060610b4b826107ce565b73ffffffffffffffffffffffffffffffffffffffff163373ffffffffffffffffffffffffffffffffffffffff1603610d27576000600860008481526020019081526020016000208054610b9d90612b55565b80601f0160208091040260200160405190810160405280929190818152602001828054610bc990612b55565b8015610c165780601f10610beb57610100808354040283529160200191610c16565b820191906000526020600020905b815481529060010190602001808311610bf957829003601f168201915b505050505090506000600a8054610c2c90612b55565b80601f0160208091040260200160405190810160405280929190818152602001828054610c5890612b55565b8015610ca55780601f10610c7a57610100808354040283529160200191610ca5565b820191906000526020600020905b815481529060010190602001808311610c8857829003601f168201915b505050505090506000815103610cbf578192505050610d59565b600082511115610cf4578082604051602001610cdc929190612eda565b60405160208183030381529060405292505050610d59565b80610cfe85611afe565b604051602001610d0f929190612eda565b60405160208183030381529060405292505050610d59565b6040517fb174a97400000000000000000000000000000000000000000000000000000000815260040160405180910390fd5b919050565b6000600660008473ffffffffffffffffffffffffffffffffffffffff1673ffffffffffffffffffffffffffffffffffffffff16815260200190815260200160002060008373ffffffffffffffffffffffffffffffffffffffff1673ffffffffffffffffffffffffffffffffffffffff16815260200190815260200160002060009054906101000a900460ff16905092915050565b610dfa61139c565b600073ffffffffffffffffffffffffffffffffffffffff168173ffffffffffffffffffffffffffffffffffffffff1603610e6c5760006040517f1e4fbdf7000000000000000000000000000000000000000000000000000000008152600401610e6391906125c7565b60405180910390fd5b610e7581611423565b50565b60603373ffffffffffffffffffffffffffffffffffffffff168273ffffffffffffffffffffffffffffffffffffffff1603610fbf576000600960008473ffffffffffffffffffffffffffffffffffffffff1673ffffffffffffffffffffffffffffffffffffffff168152602001908152602001600020805490501115610f8d57600960008373ffffffffffffffffffffffffffffffffffffffff1673ffffffffffffffffffffffffffffffffffffffff168152602001908152602001600020805480602002602001604051908101604052809291908181526020018280548015610f8157602002820191906000526020600020905b815481526020019060010190808311610f6d575b50505050509050610ff1565b6040517fad0b161c00000000000000000000000000000000000000000000000000000000815260040160405180910390fd5b6040517fb174a97400000000000000000000000000000000000000000000000000000000815260040160405180910390fd5b919050565b60007f01ffc9a7000000000000000000000000000000000000000000000000000000007bffffffffffffffffffffffffffffffffffffffffffffffffffffffff1916827bffffffffffffffffffffffffffffffffffffffffffffffffffffffff1916149050919050565b60008061106c83611bcc565b9050600073ffffffffffffffffffffffffffffffffffffffff168173ffffffffffffffffffffffffffffffffffffffff16036110df57826040517f7e2732890000000000000000000000000000000000000000000000000000000081526004016110d6919061282e565b60405180910390fd5b80915050919050565b60006005600083815260200190815260200160002060009054906101000a900473ffffffffffffffffffffffffffffffffffffffff169050919050565b600033905090565b61113a8383836001611c09565b505050565b60008061114b84611bcc565b9050600073ffffffffffffffffffffffffffffffffffffffff168373ffffffffffffffffffffffffffffffffffffffff161461118d5761118c818486611dce565b5b600073ffffffffffffffffffffffffffffffffffffffff168173ffffffffffffffffffffffffffffffffffffffff161461121e576111cf600085600080611c09565b6001600460008373ffffffffffffffffffffffffffffffffffffffff1673ffffffffffffffffffffffffffffffffffffffff168152602001908152602001600020600082825403925050819055505b600073ffffffffffffffffffffffffffffffffffffffff168573ffffffffffffffffffffffffffffffffffffffff16146112a1576001600460008773ffffffffffffffffffffffffffffffffffffffff1673ffffffffffffffffffffffffffffffffffffffff168152602001908152602001600020600082825401925050819055505b846003600086815260200190815260200160002060006101000a81548173ffffffffffffffffffffffffffffffffffffffff021916908373ffffffffffffffffffffffffffffffffffffffff160217905550838573ffffffffffffffffffffffffffffffffffffffff168273ffffffffffffffffffffffffffffffffffffffff167fddf252ad1be2c89b69c2b068fc378daa952ba7f163c4a11628f55a4df523b3ef60405160405180910390a4809150509392505050565b611373828260405180602001604052806000815250611e92565b5050565b806008600084815260200190815260200160002090816113979190612dcc565b505050565b6113a4611125565b73ffffffffffffffffffffffffffffffffffffffff166113c2610956565b73ffffffffffffffffffffffffffffffffffffffff1614611421576113e5611125565b6040517f118cdaa700000000000000000000000000000000000000000000000000000000815260040161141891906125c7565b60405180910390fd5b565b60008060009054906101000a900473ffffffffffffffffffffffffffffffffffffffff169050816000806101000a81548173ffffffffffffffffffffffffffffffffffffffff021916908373ffffffffffffffffffffffffffffffffffffffff1602179055508173ffffffffffffffffffffffffffffffffffffffff168173ffffffffffffffffffffffffffffffffffffffff167f8be0079c531659141344cd1fd0a4f28419497f9722a3daafe3b4186f6b6457e060405160405180910390a35050565b60006114f6600083600061113f565b9050600073ffffffffffffffffffffffffffffffffffffffff168173ffffffffffffffffffffffffffffffffffffffff160361156957816040517f7e273289000000000000000000000000000000000000000000000000000000008152600401611560919061282e565b60405180910390fd5b5050565b600080600090505b600960008573ffffffffffffffffffffffffffffffffffffffff1673ffffffffffffffffffffffffffffffffffffffff168152602001908152602001600020805490508110156117ac5782600960008673ffffffffffffffffffffffffffffffffffffffff1673ffffffffffffffffffffffffffffffffffffffff168152602001908152602001600020828154811061161157611610612efe565b5b90600052602060002001540361179957600960008573ffffffffffffffffffffffffffffffffffffffff1673ffffffffffffffffffffffffffffffffffffffff1681526020019081526020016000206001600960008773ffffffffffffffffffffffffffffffffffffffff1673ffffffffffffffffffffffffffffffffffffffff168152602001908152602001600020805490506116af9190612f2d565b815481106116c0576116bf612efe565b5b9060005260206000200154600960008673ffffffffffffffffffffffffffffffffffffffff1673ffffffffffffffffffffffffffffffffffffffff168152602001908152602001600020828154811061171c5761171b612efe565b5b9060005260206000200181905550600960008573ffffffffffffffffffffffffffffffffffffffff1673ffffffffffffffffffffffffffffffffffffffff16815260200190815260200160002080548061177957611778612f61565b5b6001900381819060005260206000200160009055905560019150506117b2565b80806117a490612f90565b915050611575565b50600090505b92915050565b6117d383838360405180602001604052806000815250611eae565b505050565b600073ffffffffffffffffffffffffffffffffffffffff168273ffffffffffffffffffffffffffffffffffffffff160361184957816040517f5b08ba1800000000000000000000000000000000000000000000000000000000815260040161184091906125c7565b60405180910390fd5b80600660008573ffffffffffffffffffffffffffffffffffffffff1673ffffffffffffffffffffffffffffffffffffffff16815260200190815260200160002060008473ffffffffffffffffffffffffffffffffffffffff1673ffffffffffffffffffffffffffffffffffffffff16815260200190815260200160002060006101000a81548160ff0219169083151502179055508173ffffffffffffffffffffffffffffffffffffffff168373ffffffffffffffffffffffffffffffffffffffff167f17307eab39ab6107e8899845ad3d59bd9653f200f220920489ca2b5937696c318360405161193a9190612456565b60405180910390a3505050565b60008373ffffffffffffffffffffffffffffffffffffffff163b1115611af8578273ffffffffffffffffffffffffffffffffffffffff1663150b7a0261198b611125565b8685856040518563ffffffff1660e01b81526004016119ad949392919061302d565b6020604051808303816000875af19250505080156119e957506040513d601f19601f820116820180604052508101906119e6919061308e565b60015b611a6d573d8060008114611a19576040519150601f19603f3d011682016040523d82523d6000602084013e611a1e565b606091505b506000815103611a6557836040517f64a0ae92000000000000000000000000000000000000000000000000000000008152600401611a5c91906125c7565b60405180910390fd5b805181602001fd5b63150b7a0260e01b7bffffffffffffffffffffffffffffffffffffffffffffffffffffffff1916817bffffffffffffffffffffffffffffffffffffffffffffffffffffffff191614611af657836040517f64a0ae92000000000000000000000000000000000000000000000000000000008152600401611aed91906125c7565b60405180910390fd5b505b50505050565b606060006001611b0d84611ecb565b01905060008167ffffffffffffffff811115611b2c57611b2b6126ab565b5b6040519080825280601f01601f191660200182016040528015611b5e5781602001600182028036833780820191505090505b509050600082602001820190505b600115611bc1578080600190039150507f3031323334353637383961626364656600000000000000000000000000000000600a86061a8153600a8581611bb557611bb46130bb565b5b04945060008503611b6c575b819350505050919050565b60006003600083815260200190815260200160002060009054906101000a900473ffffffffffffffffffffffffffffffffffffffff169050919050565b8080611c425750600073ffffffffffffffffffffffffffffffffffffffff168273ffffffffffffffffffffffffffffffffffffffff1614155b15611d76576000611c5284611060565b9050600073ffffffffffffffffffffffffffffffffffffffff168373ffffffffffffffffffffffffffffffffffffffff1614158015611cbd57508273ffffffffffffffffffffffffffffffffffffffff168173ffffffffffffffffffffffffffffffffffffffff1614155b8015611cd05750611cce8184610d5e565b155b15611d1257826040517fa9fbf51f000000000000000000000000000000000000000000000000000000008152600401611d0991906125c7565b60405180910390fd5b8115611d7457838573ffffffffffffffffffffffffffffffffffffffff168273ffffffffffffffffffffffffffffffffffffffff167f8c5be1e5ebec7d5bd14f71427d1e84f3dd0314c0f7b2291e5b200ac8c7c3b92560405160405180910390a45b505b836005600085815260200190815260200160002060006101000a81548173ffffffffffffffffffffffffffffffffffffffff021916908373ffffffffffffffffffffffffffffffffffffffff16021790555050505050565b611dd983838361201e565b611e8d57600073ffffffffffffffffffffffffffffffffffffffff168373ffffffffffffffffffffffffffffffffffffffff1603611e4e57806040517f7e273289000000000000000000000000000000000000000000000000000000008152600401611e45919061282e565b60405180910390fd5b81816040517f177e802f000000000000000000000000000000000000000000000000000000008152600401611e849291906130ea565b60405180910390fd5b505050565b611e9c83836120df565b611ea96000848484611947565b505050565b611eb98484846121d8565b611ec584848484611947565b50505050565b600080600090507a184f03e93ff9f4daa797ed6e38ed64bf6a1f0100000000000000008310611f29577a184f03e93ff9f4daa797ed6e38ed64bf6a1f0100000000000000008381611f1f57611f1e6130bb565b5b0492506040810190505b6d04ee2d6d415b85acef81000000008310611f66576d04ee2d6d415b85acef81000000008381611f5c57611f5b6130bb565b5b0492506020810190505b662386f26fc100008310611f9557662386f26fc100008381611f8b57611f8a6130bb565b5b0492506010810190505b6305f5e1008310611fbe576305f5e1008381611fb457611fb36130bb565b5b0492506008810190505b6127108310611fe3576127108381611fd957611fd86130bb565b5b0492506004810190505b606483106120065760648381611ffc57611ffb6130bb565b5b0492506002810190505b600a8310612015576001810190505b80915050919050565b60008073ffffffffffffffffffffffffffffffffffffffff168373ffffffffffffffffffffffffffffffffffffffff16141580156120d657508273ffffffffffffffffffffffffffffffffffffffff168473ffffffffffffffffffffffffffffffffffffffff16148061209757506120968484610d5e565b5b806120d557508273ffffffffffffffffffffffffffffffffffffffff166120bd836110e8565b73ffffffffffffffffffffffffffffffffffffffff16145b5b90509392505050565b600073ffffffffffffffffffffffffffffffffffffffff168273ffffffffffffffffffffffffffffffffffffffff16036121515760006040517f64a0ae9200000000000000000000000000000000000000000000000000000000815260040161214891906125c7565b60405180910390fd5b600061215f8383600061113f565b9050600073ffffffffffffffffffffffffffffffffffffffff168173ffffffffffffffffffffffffffffffffffffffff16146121d35760006040517f73c6ac6e0000000000000000000000000000000000000000000000000000000081526004016121ca91906125c7565b60405180910390fd5b505050565b600073ffffffffffffffffffffffffffffffffffffffff168273ffffffffffffffffffffffffffffffffffffffff160361224a5760006040517f64a0ae9200000000000000000000000000000000000000000000000000000000815260040161224191906125c7565b60405180910390fd5b60006122588383600061113f565b9050600073ffffffffffffffffffffffffffffffffffffffff168173ffffffffffffffffffffffffffffffffffffffff16036122cb57816040517f7e2732890000000000000000000000000000000000000000000000000000000081526004016122c2919061282e565b60405180910390fd5b8373ffffffffffffffffffffffffffffffffffffffff168173ffffffffffffffffffffffffffffffffffffffff161461233f578382826040517f64283d7b00000000000000000000000000000000000000000000000000000000815260040161233693929190612b86565b60405180910390fd5b50505050565b50805461235190612b55565b6000825580601f106123635750612382565b601f0160209004906000526020600020908101906123819190612385565b5b50565b5b8082111561239e576000816000905550600101612386565b5090565b6000604051905090565b600080fd5b600080fd5b60007fffffffff0000000000000000000000000000000000000000000000000000000082169050919050565b6123eb816123b6565b81146123f657600080fd5b50565b600081359050612408816123e2565b92915050565b600060208284031215612424576124236123ac565b5b6000612432848285016123f9565b91505092915050565b60008115159050919050565b6124508161243b565b82525050565b600060208201905061246b6000830184612447565b92915050565b600081519050919050565b600082825260208201905092915050565b60005b838110156124ab578082015181840152602081019050612490565b60008484015250505050565b6000601f19601f8301169050919050565b60006124d382612471565b6124dd818561247c565b93506124ed81856020860161248d565b6124f6816124b7565b840191505092915050565b6000602082019050818103600083015261251b81846124c8565b905092915050565b6000819050919050565b61253681612523565b811461254157600080fd5b50565b6000813590506125538161252d565b92915050565b60006020828403121561256f5761256e6123ac565b5b600061257d84828501612544565b91505092915050565b600073ffffffffffffffffffffffffffffffffffffffff82169050919050565b60006125b182612586565b9050919050565b6125c1816125a6565b82525050565b60006020820190506125dc60008301846125b8565b92915050565b6125eb816125a6565b81146125f657600080fd5b50565b600081359050612608816125e2565b92915050565b60008060408385031215612625576126246123ac565b5b6000612633858286016125f9565b925050602061264485828601612544565b9150509250929050565b600080600060608486031215612667576126666123ac565b5b6000612675868287016125f9565b9350506020612686868287016125f9565b925050604061269786828701612544565b9150509250925092565b600080fd5b600080fd5b7f4e487b7100000000000000000000000000000000000000000000000000000000600052604160045260246000fd5b6126e3826124b7565b810181811067ffffffffffffffff82111715612702576127016126ab565b5b80604052505050565b60006127156123a2565b905061272182826126da565b919050565b600067ffffffffffffffff821115612741576127406126ab565b5b61274a826124b7565b9050602081019050919050565b82818337600083830152505050565b600061277961277484612726565b61270b565b905082815260208101848484011115612795576127946126a6565b5b6127a0848285612757565b509392505050565b600082601f8301126127bd576127bc6126a1565b5b81356127cd848260208601612766565b91505092915050565b6000602082840312156127ec576127eb6123ac565b5b600082013567ffffffffffffffff81111561280a576128096123b1565b5b612816848285016127a8565b91505092915050565b61282881612523565b82525050565b6000602082019050612843600083018461281f565b92915050565b60006020828403121561285f5761285e6123ac565b5b600061286d848285016125f9565b91505092915050565b61287f8161243b565b811461288a57600080fd5b50565b60008135905061289c81612876565b92915050565b600080604083850312156128b9576128b86123ac565b5b60006128c7858286016125f9565b92505060206128d88582860161288d565b9150509250929050565b600067ffffffffffffffff8211156128fd576128fc6126ab565b5b612906826124b7565b9050602081019050919050565b6000612926612921846128e2565b61270b565b905082815260208101848484011115612942576129416126a6565b5b61294d848285612757565b509392505050565b600082601f83011261296a576129696126a1565b5b813561297a848260208601612913565b91505092915050565b6000806000806080858703121561299d5761299c6123ac565b5b60006129ab878288016125f9565b94505060206129bc878288016125f9565b93505060406129cd87828801612544565b925050606085013567ffffffffffffffff8111156129ee576129ed6123b1565b5b6129fa87828801612955565b91505092959194509250565b60008060408385031215612a1d57612a1c6123ac565b5b6000612a2b858286016125f9565b9250506020612a3c858286016125f9565b9150509250929050565b600081519050919050565b600082825260208201905092915050565b6000819050602082019050919050565b612a7b81612523565b82525050565b6000612a8d8383612a72565b60208301905092915050565b6000602082019050919050565b6000612ab182612a46565b612abb8185612a51565b9350612ac683612a62565b8060005b83811015612af7578151612ade8882612a81565b9750612ae983612a99565b925050600181019050612aca565b5085935050505092915050565b60006020820190508181036000830152612b1e8184612aa6565b905092915050565b7f4e487b7100000000000000000000000000000000000000000000000000000000600052602260045260246000fd5b60006002820490506001821680612b6d57607f821691505b602082108103612b8057612b7f612b26565b5b50919050565b6000606082019050612b9b60008301866125b8565b612ba8602083018561281f565b612bb560408301846125b8565b949350505050565b7f4e487b7100000000000000000000000000000000000000000000000000000000600052601160045260246000fd5b6000612bf782612523565b9150612c0283612523565b9250828201905080821115612c1a57612c19612bbd565b5b92915050565b60008190508160005260206000209050919050565b60006020601f8301049050919050565b600082821b905092915050565b600060088302612c827fffffffffffffffffffffffffffffffffffffffffffffffffffffffffffffffff82612c45565b612c8c8683612c45565b95508019841693508086168417925050509392505050565b6000819050919050565b6000612cc9612cc4612cbf84612523565b612ca4565b612523565b9050919050565b6000819050919050565b612ce383612cae565b612cf7612cef82612cd0565b848454612c52565b825550505050565b600090565b612d0c612cff565b612d17818484612cda565b505050565b5b81811015612d3b57612d30600082612d04565b600181019050612d1d565b5050565b601f821115612d8057612d5181612c20565b612d5a84612c35565b81016020851015612d69578190505b612d7d612d7585612c35565b830182612d1c565b50505b505050565b600082821c905092915050565b6000612da360001984600802612d85565b1980831691505092915050565b6000612dbc8383612d92565b9150826002028217905092915050565b612dd582612471565b67ffffffffffffffff811115612dee57612ded6126ab565b5b612df88254612b55565b612e03828285612d3f565b600060209050601f831160018114612e365760008415612e24578287015190505b612e2e8582612db0565b865550612e96565b601f198416612e4486612c20565b60005b82811015612e6c57848901518255600182019150602085019450602081019050612e47565b86831015612e895784890151612e85601f891682612d92565b8355505b6001600288020188555050505b505050505050565b600081905092915050565b6000612eb482612471565b612ebe8185612e9e565b9350612ece81856020860161248d565b80840191505092915050565b6000612ee68285612ea9565b9150612ef28284612ea9565b91508190509392505050565b7f4e487b7100000000000000000000000000000000000000000000000000000000600052603260045260246000fd5b6000612f3882612523565b9150612f4383612523565b9250828203905081811115612f5b57612f5a612bbd565b5b92915050565b7f4e487b7100000000000000000000000000000000000000000000000000000000600052603160045260246000fd5b6000612f9b82612523565b91507fffffffffffffffffffffffffffffffffffffffffffffffffffffffffffffffff8203612fcd57612fcc612bbd565b5b600182019050919050565b600081519050919050565b600082825260208201905092915050565b6000612fff82612fd8565b6130098185612fe3565b935061301981856020860161248d565b613022816124b7565b840191505092915050565b600060808201905061304260008301876125b8565b61304f60208301866125b8565b61305c604083018561281f565b818103606083015261306e8184612ff4565b905095945050505050565b600081519050613088816123e2565b92915050565b6000602082840312156130a4576130a36123ac565b5b60006130b284828501613079565b91505092915050565b7f4e487b7100000000000000000000000000000000000000000000000000000000600052601260045260246000fd5b60006040820190506130ff60008301856125b8565b61310c602083018461281f565b939250505056fea26469706673582212203b38a3e3dc84d01d4225201c3a75553a34d4235f3aff2f5af6fbc2a8f7d4e9f864736f6c63430008140033",
  "linkReferences": {},
  "deployedLinkReferences": {}
}