{
  "_format": "hh-sol-artifact-1",
  "contractName": "DocuMinter",
  "sourceName": "contracts/DocuMinter.sol",
  "abi": [
    {
      "inputs": [],
      "stateMutability": "nonpayable",
      "type": "constructor"
    },
    {
      "inputs": [],
      "name": "DocuMinter__NoDocumentsMinted",
      "type": "error"
    },
    {
      "inputs": [],
      "name": "DocuMinter__NotAuthorizedToOperate",
      "type": "error"
    },
    {
      "inputs": [
        {
          "internalType": "address",
          "name": "sender",
          "type": "address"
        },
        {
          "internalType": "uint256",
          "name": "tokenId",
          "type": "uint256"
        },
        {
          "internalType": "address",
          "name": "owner",
          "type": "address"
        }
      ],
      "name": "ERC721IncorrectOwner",
      "type": "error"
    },
    {
      "inputs": [
        {
          "internalType": "address",
          "name": "operator",
          "type": "address"
        },
        {
          "internalType": "uint256",
          "name": "tokenId",
          "type": "uint256"
        }
      ],
      "name": "ERC721InsufficientApproval",
      "type": "error"
    },
    {
      "inputs": [
        {
          "internalType": "address",
          "name": "approver",
          "type": "address"
        }
      ],
      "name": "ERC721InvalidApprover",
      "type": "error"
    },
    {
      "inputs": [
        {
          "internalType": "address",
          "name": "operator",
          "type": "address"
        }
      ],
      "name": "ERC721InvalidOperator",
      "type": "error"
    },
    {
      "inputs": [
        {
          "internalType": "address",
          "name": "owner",
          "type": "address"
        }
      ],
      "name": "ERC721InvalidOwner",
      "type": "error"
    },
    {
      "inputs": [
        {
          "internalType": "address",
          "name": "receiver",
          "type": "address"
        }
      ],
      "name": "ERC721InvalidReceiver",
      "type": "error"
    },
    {
      "inputs": [
        {
          "internalType": "address",
          "name": "sender",
          "type": "address"
        }
      ],
      "name": "ERC721InvalidSender",
      "type": "error"
    },
    {
      "inputs": [
        {
          "internalType": "uint256",
          "name": "tokenId",
          "type": "uint256"
        }
      ],
      "name": "ERC721NonexistentToken",
      "type": "error"
    },
    {
      "inputs": [
        {
          "internalType": "address",
          "name": "owner",
          "type": "address"
        }
      ],
      "name": "OwnableInvalidOwner",
      "type": "error"
    },
    {
      "inputs": [
        {
          "internalType": "address",
          "name": "account",
          "type": "address"
        }
      ],
      "name": "OwnableUnauthorizedAccount",
      "type": "error"
    },
    {
      "anonymous": false,
      "inputs": [
        {
          "indexed": true,
          "internalType": "address",
          "name": "owner",
          "type": "address"
        },
        {
          "indexed": true,
          "internalType": "address",
          "name": "approved",
          "type": "address"
        },
        {
          "indexed": true,
          "internalType": "uint256",
          "name": "tokenId",
          "type": "uint256"
        }
      ],
      "name": "Approval",
      "type": "event"
    },
    {
      "anonymous": false,
      "inputs": [
        {
          "indexed": true,
          "internalType": "address",
          "name": "owner",
          "type": "address"
        },
        {
          "indexed": true,
          "internalType": "address",
          "name": "operator",
          "type": "address"
        },
        {
          "indexed": false,
          "internalType": "bool",
          "name": "approved",
          "type": "bool"
        }
      ],
      "name": "ApprovalForAll",
      "type": "event"
    },
    {
      "anonymous": false,
      "inputs": [
        {
          "indexed": true,
          "internalType": "address",
          "name": "previousOwner",
          "type": "address"
        },
        {
          "indexed": true,
          "internalType": "address",
          "name": "newOwner",
          "type": "address"
        }
      ],
      "name": "OwnershipTransferred",
      "type": "event"
    },
    {
      "anonymous": false,
      "inputs": [
        {
          "indexed": true,
          "internalType": "address",
          "name": "from",
          "type": "address"
        },
        {
          "indexed": true,
          "internalType": "address",
          "name": "to",
          "type": "address"
        },
        {
          "indexed": true,
          "internalType": "uint256",
          "name": "tokenId",
          "type": "uint256"
        }
      ],
      "name": "Transfer",
      "type": "event"
    },
    {
      "inputs": [
        {
          "internalType": "address",
          "name": "to",
          "type": "address"
        },
        {
          "internalType": "uint256",
          "name": "tokenId",
          "type": "uint256"
        }
      ],
      "name": "approve",
      "outputs": [],
      "stateMutability": "nonpayable",
      "type": "function"
    },
    {
      "inputs": [
        {
          "internalType": "address",
          "name": "owner",
          "type": "address"
        }
      ],
      "name": "balanceOf",
      "outputs": [
        {
          "internalType": "uint256",
          "name": "",
          "type": "uint256"
        }
      ],
      "stateMutability": "view",
      "type": "function"
    },
    {
      "inputs": [
        {
          "internalType": "uint256",
          "name": "_tokenId",
          "type": "uint256"
        }
      ],
      "name": "burnDoc",
      "outputs": [],
      "stateMutability": "nonpayable",
      "type": "function"
    },
    {
      "inputs": [
        {
          "internalType": "address",
          "name": "_receiver",
          "type": "address"
        },
        {
          "internalType": "uint256",
          "name": "_tokenId",
          "type": "uint256"
        }
      ],
      "name": "conductTransfer",
      "outputs": [],
      "stateMutability": "nonpayable",
      "type": "function"
    },
    {
      "inputs": [
        {
          "internalType": "uint256",
          "name": "tokenId",
          "type": "uint256"
        }
      ],
      "name": "getApproved",
      "outputs": [
        {
          "internalType": "address",
          "name": "",
          "type": "address"
        }
      ],
      "stateMutability": "view",
      "type": "function"
    },
    {
      "inputs": [
        {
          "internalType": "address",
          "name": "owner",
          "type": "address"
        },
        {
          "internalType": "address",
          "name": "operator",
          "type": "address"
        }
      ],
      "name": "isApprovedForAll",
      "outputs": [
        {
          "internalType": "bool",
          "name": "",
          "type": "bool"
        }
      ],
      "stateMutability": "view",
      "type": "function"
    },
    {
      "inputs": [
        {
          "internalType": "string",
          "name": "_tokenURI",
          "type": "string"
        }
      ],
      "name": "mintDoc",
      "outputs": [
        {
          "internalType": "uint256",
          "name": "",
          "type": "uint256"
        }
      ],
      "stateMutability": "nonpayable",
      "type": "function"
    },
    {
      "inputs": [],
      "name": "name",
      "outputs": [
        {
          "internalType": "string",
          "name": "",
          "type": "string"
        }
      ],
      "stateMutability": "view",
      "type": "function"
    },
    {
      "inputs": [],
      "name": "owner",
      "outputs": [
        {
          "internalType": "address",
          "name": "",
          "type": "address"
        }
      ],
      "stateMutability": "view",
      "type": "function"
    },
    {
      "inputs": [
        {
          "internalType": "uint256",
          "name": "tokenId",
          "type": "uint256"
        }
      ],
      "name": "ownerOf",
      "outputs": [
        {
          "internalType": "address",
          "name": "",
          "type": "address"
        }
      ],
      "stateMutability": "view",
      "type": "function"
    },
    {
      "inputs": [
        {
          "internalType": "address",
          "name": "ownerAddress",
          "type": "address"
        }
      ],
      "name": "owns",
      "outputs": [
        {
          "internalType": "uint256[]",
          "name": "",
          "type": "uint256[]"
        }
      ],
      "stateMutability": "view",
      "type": "function"
    },
    {
      "inputs": [],
      "name": "renounceOwnership",
      "outputs": [],
      "stateMutability": "nonpayable",
      "type": "function"
    },
    {
      "inputs": [
        {
          "internalType": "address",
          "name": "from",
          "type": "address"
        },
        {
          "internalType": "address",
          "name": "to",
          "type": "address"
        },
        {
          "internalType": "uint256",
          "name": "tokenId",
          "type": "uint256"
        }
      ],
      "name": "safeTransferFrom",
      "outputs": [],
      "stateMutability": "nonpayable",
      "type": "function"
    },
    {
      "inputs": [
        {
          "internalType": "address",
          "name": "from",
          "type": "address"
        },
        {
          "internalType": "address",
          "name": "to",
          "type": "address"
        },
        {
          "internalType": "uint256",
          "name": "tokenId",
          "type": "uint256"
        },
        {
          "internalType": "bytes",
          "name": "data",
          "type": "bytes"
        }
      ],
      "name": "safeTransferFrom",
      "outputs": [],
      "stateMutability": "nonpayable",
      "type": "function"
    },
    {
      "inputs": [
        {
          "internalType": "address",
          "name": "operator",
          "type": "address"
        },
        {
          "internalType": "bool",
          "name": "approved",
          "type": "bool"
        }
      ],
      "name": "setApprovalForAll",
      "outputs": [],
      "stateMutability": "nonpayable",
      "type": "function"
    },
    {
      "inputs": [
        {
          "internalType": "string",
          "name": "baseURI_",
          "type": "string"
        }
      ],
      "name": "setBaseURI",
      "outputs": [],
      "stateMutability": "nonpayable",
      "type": "function"
    },
    {
      "inputs": [
        {
          "internalType": "bytes4",
          "name": "interfaceId",
          "type": "bytes4"
        }
      ],
      "name": "supportsInterface",
      "outputs": [
        {
          "internalType": "bool",
          "name": "",
          "type": "bool"
        }
      ],
      "stateMutability": "view",
      "type": "function"
    },
    {
      "inputs": [],
      "name": "symbol",
      "outputs": [
        {
          "internalType": "string",
          "name": "",
          "type": "string"
        }
      ],
      "stateMutability": "view",
      "type": "function"
    },
    {
      "inputs": [
        {
          "internalType": "uint256",
          "name": "tokenId",
          "type": "uint256"
        }
      ],
      "name": "tokenURI",
      "outputs": [
        {
          "internalType": "string",
          "name": "",
          "type": "string"
        }
      ],
      "stateMutability": "view",
      "type": "function"
    },
    {
      "inputs": [],
      "name": "totalMinted",
      "outputs": [
        {
          "internalType": "uint256",
          "name": "",
          "type": "uint256"
        }
      ],
      "stateMutability": "view",
      "type": "function"
    },
    {
      "inputs": [
        {
          "internalType": "address",
          "name": "from",
          "type": "address"
        },
        {
          "internalType": "address",
          "name": "to",
          "type": "address"
        },
        {
          "internalType": "uint256",
          "name": "tokenId",
          "type": "uint256"
        }
      ],
      "name": "transferFrom",
      "outputs": [],
      "stateMutability": "nonpayable",
      "type": "function"
    },
    {
      "inputs": [
        {
          "internalType": "address",
          "name": "newOwner",
          "type": "address"
        }
      ],
      "name": "transferOwnership",
      "outputs": [],
      "stateMutability": "nonpayable",
      "type": "function"
    }
  ],
  "bytecode": "0x60806040523480156200001157600080fd5b506040518060400160405280600a81526020017f446f63754d696e746564000000000000000000000000000000000000000000008152506040518060400160405280600581526020017f44434d4e5400000000000000000000000000000000000000000000000000000081525033600073ffffffffffffffffffffffffffffffffffffffff168173ffffffffffffffffffffffffffffffffffffffff1603620000f45760006040517f1e4fbdf7000000000000000000000000000000000000000000000000000000008152600401620000eb919062000243565b60405180910390fd5b62000105816200013a60201b60201c565b508160019081620001179190620004da565b508060029081620001299190620004da565b5050506000600781905550620005c1565b60008060009054906101000a900473ffffffffffffffffffffffffffffffffffffffff169050816000806101000a81548173ffffffffffffffffffffffffffffffffffffffff021916908373ffffffffffffffffffffffffffffffffffffffff1602179055508173ffffffffffffffffffffffffffffffffffffffff168173ffffffffffffffffffffffffffffffffffffffff167f8be0079c531659141344cd1fd0a4f28419497f9722a3daafe3b4186f6b6457e060405160405180910390a35050565b600073ffffffffffffffffffffffffffffffffffffffff82169050919050565b60006200022b82620001fe565b9050919050565b6200023d816200021e565b82525050565b60006020820190506200025a600083018462000232565b92915050565b600081519050919050565b7f4e487b7100000000000000000000000000000000000000000000000000000000600052604160045260246000fd5b7f4e487b7100000000000000000000000000000000000000000000000000000000600052602260045260246000fd5b60006002820490506001821680620002e257607f821691505b602082108103620002f857620002f76200029a565b5b50919050565b60008190508160005260206000209050919050565b60006020601f8301049050919050565b600082821b905092915050565b600060088302620003627fffffffffffffffffffffffffffffffffffffffffffffffffffffffffffffffff8262000323565b6200036e868362000323565b95508019841693508086168417925050509392505050565b6000819050919050565b6000819050919050565b6000620003bb620003b5620003af8462000386565b62000390565b62000386565b9050919050565b6000819050919050565b620003d7836200039a565b620003ef620003e682620003c2565b84845462000330565b825550505050565b600090565b62000406620003f7565b62000413818484620003cc565b505050565b5b818110156200043b576200042f600082620003fc565b60018101905062000419565b5050565b601f8211156200048a576200045481620002fe565b6200045f8462000313565b810160208510156200046f578190505b620004876200047e8562000313565b83018262000418565b50505b505050565b600082821c905092915050565b6000620004af600019846008026200048f565b1980831691505092915050565b6000620004ca83836200049c565b9150826002028217905092915050565b620004e58262000260565b67ffffffffffffffff8111156200050157620005006200026b565b5b6200050d8254620002c9565b6200051a8282856200043f565b600060209050601f8311600181146200055257600084156200053d578287015190505b620005498582620004bc565b865550620005b9565b601f1984166200056286620002fe565b60005b828110156200058c5784890151825560018201915060208501945060208101905062000565565b86831015620005ac5784890151620005a8601f8916826200049c565b8355505b6001600288020188555050505b505050505050565b6130e080620005d16000396000f3fe608060405234801561001057600080fd5b50600436106101425760003560e01c80637802c5db116100b8578063a2309ff81161007c578063a2309ff81461035f578063b88d4fde1461037d578063c87b56dd14610399578063e985e9c5146103c9578063f2fde38b146103f9578063f7bc39bf1461041557610142565b80637802c5db146102cf5780638da5cb5b146102eb57806395d89b41146103095780639cf1be6e14610327578063a22cb4651461034357610142565b806342842e0e1161010a57806342842e0e146101fd578063439a2bdb1461021957806355f804b3146102495780636352211e1461026557806370a0823114610295578063715018a6146102c557610142565b806301ffc9a71461014757806306fdde0314610177578063081812fc14610195578063095ea7b3146101c557806323b872dd146101e1575b600080fd5b610161600480360381019061015c91906123a5565b610445565b60405161016e91906123ed565b60405180910390f35b61017f610527565b60405161018c9190612498565b60405180910390f35b6101af60048036038101906101aa91906124f0565b6105b9565b6040516101bc919061255e565b60405180910390f35b6101df60048036038101906101da91906125a5565b6105d5565b005b6101fb60048036038101906101f691906125e5565b6105eb565b005b610217600480360381019061021291906125e5565b6106ed565b005b610233600480360381019061022e919061276d565b61070d565b60405161024091906127c5565b60405180910390f35b610263600480360381019061025e919061276d565b6107b3565b005b61027f600480360381019061027a91906124f0565b6107ce565b60405161028c919061255e565b60405180910390f35b6102af60048036038101906102aa91906127e0565b6107e0565b6040516102bc91906127c5565b60405180910390f35b6102cd61089a565b005b6102e960048036038101906102e491906124f0565b6108ae565b005b6102f3610956565b604051610300919061255e565b60405180910390f35b61031161097f565b60405161031e9190612498565b60405180910390f35b610341600480360381019061033c91906125a5565b610a11565b005b61035d60048036038101906103589190612839565b610b03565b005b610367610b19565b60405161037491906127c5565b60405180910390f35b6103976004803603810190610392919061291a565b610b23565b005b6103b360048036038101906103ae91906124f0565b610b40565b6040516103c09190612498565b60405180910390f35b6103e360048036038101906103de919061299d565b610cf5565b6040516103f091906123ed565b60405180910390f35b610413600480360381019061040e91906127e0565b610d89565b005b61042f600480360381019061042a91906127e0565b610e0f565b60405161043c9190612a9b565b60405180910390f35b60007f80ac58cd000000000000000000000000000000000000000000000000000000007bffffffffffffffffffffffffffffffffffffffffffffffffffffffff1916827bffffffffffffffffffffffffffffffffffffffffffffffffffffffff1916148061051057507f5b5e139f000000000000000000000000000000000000000000000000000000007bffffffffffffffffffffffffffffffffffffffffffffffffffffffff1916827bffffffffffffffffffffffffffffffffffffffffffffffffffffffff1916145b80610520575061051f82610f8d565b5b9050919050565b60606001805461053690612aec565b80601f016020809104026020016040519081016040528092919081815260200182805461056290612aec565b80156105af5780601f10610584576101008083540402835291602001916105af565b820191906000526020600020905b81548152906001019060200180831161059257829003601f168201915b5050505050905090565b60006105c482610ff7565b506105ce8261107f565b9050919050565b6105e782826105e26110bc565b6110c4565b5050565b600073ffffffffffffffffffffffffffffffffffffffff168273ffffffffffffffffffffffffffffffffffffffff160361065d5760006040517f64a0ae92000000000000000000000000000000000000000000000000000000008152600401610654919061255e565b60405180910390fd5b6000610671838361066c6110bc565b6110d6565b90508373ffffffffffffffffffffffffffffffffffffffff168173ffffffffffffffffffffffffffffffffffffffff16146106e7578382826040517f64283d7b0000000000000000000000000000000000000000000000000000000081526004016106de93929190612b1d565b60405180910390fd5b50505050565b61070883838360405180602001604052806000815250610b23565b505050565b60006001600760008282546107229190612b83565b9250508190555060006007549050600960003373ffffffffffffffffffffffffffffffffffffffff1673ffffffffffffffffffffffffffffffffffffffff1681526020019081526020016000208190806001815401808255809150506001900390600052602060002001600090919091909150556107a033826112f0565b6107aa818461130e565b80915050919050565b6107bb611333565b80600a90816107ca9190612d63565b5050565b60006107d982610ff7565b9050919050565b60008073ffffffffffffffffffffffffffffffffffffffff168273ffffffffffffffffffffffffffffffffffffffff16036108535760006040517f89c62b6400000000000000000000000000000000000000000000000000000000815260040161084a919061255e565b60405180910390fd5b600460008373ffffffffffffffffffffffffffffffffffffffff1673ffffffffffffffffffffffffffffffffffffffff168152602001908152602001600020549050919050565b6108a2611333565b6108ac60006113ba565b565b3373ffffffffffffffffffffffffffffffffffffffff166108ce826107ce565b73ffffffffffffffffffffffffffffffffffffffff1603610921576108f28161147e565b60086000828152602001908152602001600020600061091191906122dc565b61091b3382611504565b50610953565b6040517fb174a97400000000000000000000000000000000000000000000000000000000815260040160405180910390fd5b50565b60008060009054906101000a900473ffffffffffffffffffffffffffffffffffffffff16905090565b60606002805461098e90612aec565b80601f01602080910402602001604051908101604052809291908181526020018280546109ba90612aec565b8015610a075780601f106109dc57610100808354040283529160200191610a07565b820191906000526020600020905b8154815290600101906020018083116109ea57829003601f168201915b5050505050905090565b3373ffffffffffffffffffffffffffffffffffffffff16610a31826107ce565b73ffffffffffffffffffffffffffffffffffffffff1603610acd57610a5733838361174f565b610a613382611504565b50600960008373ffffffffffffffffffffffffffffffffffffffff1673ffffffffffffffffffffffffffffffffffffffff168152602001908152602001600020819080600181540180825580915050600190039060005260206000200160009091909190915055610aff565b6040517fb174a97400000000000000000000000000000000000000000000000000000000815260040160405180910390fd5b5050565b610b15610b0e6110bc565b838361176f565b5050565b6000600754905090565b610b2e8484846105eb565b610b3a848484846118de565b50505050565b6060610b4a611333565b6000600860008481526020019081526020016000208054610b6a90612aec565b80601f0160208091040260200160405190810160405280929190818152602001828054610b9690612aec565b8015610be35780601f10610bb857610100808354040283529160200191610be3565b820191906000526020600020905b815481529060010190602001808311610bc657829003601f168201915b505050505090506000600a8054610bf990612aec565b80601f0160208091040260200160405190810160405280929190818152602001828054610c2590612aec565b8015610c725780601f10610c4757610100808354040283529160200191610c72565b820191906000526020600020905b815481529060010190602001808311610c5557829003601f168201915b505050505090506000815103610c8c578192505050610cf0565b600082511115610cc1578082604051602001610ca9929190612e71565b60405160208183030381529060405292505050610cf0565b80610ccb85611a95565b604051602001610cdc929190612e71565b604051602081830303815290604052925050505b919050565b6000600660008473ffffffffffffffffffffffffffffffffffffffff1673ffffffffffffffffffffffffffffffffffffffff16815260200190815260200160002060008373ffffffffffffffffffffffffffffffffffffffff1673ffffffffffffffffffffffffffffffffffffffff16815260200190815260200160002060009054906101000a900460ff16905092915050565b610d91611333565b600073ffffffffffffffffffffffffffffffffffffffff168173ffffffffffffffffffffffffffffffffffffffff1603610e035760006040517f1e4fbdf7000000000000000000000000000000000000000000000000000000008152600401610dfa919061255e565b60405180910390fd5b610e0c816113ba565b50565b60603373ffffffffffffffffffffffffffffffffffffffff168273ffffffffffffffffffffffffffffffffffffffff1603610f56576000600960008473ffffffffffffffffffffffffffffffffffffffff1673ffffffffffffffffffffffffffffffffffffffff168152602001908152602001600020805490501115610f2457600960008373ffffffffffffffffffffffffffffffffffffffff1673ffffffffffffffffffffffffffffffffffffffff168152602001908152602001600020805480602002602001604051908101604052809291908181526020018280548015610f1857602002820191906000526020600020905b815481526020019060010190808311610f04575b50505050509050610f88565b6040517fad0b161c00000000000000000000000000000000000000000000000000000000815260040160405180910390fd5b6040517fb174a97400000000000000000000000000000000000000000000000000000000815260040160405180910390fd5b919050565b60007f01ffc9a7000000000000000000000000000000000000000000000000000000007bffffffffffffffffffffffffffffffffffffffffffffffffffffffff1916827bffffffffffffffffffffffffffffffffffffffffffffffffffffffff1916149050919050565b60008061100383611b63565b9050600073ffffffffffffffffffffffffffffffffffffffff168173ffffffffffffffffffffffffffffffffffffffff160361107657826040517f7e27328900000000000000000000000000000000000000000000000000000000815260040161106d91906127c5565b60405180910390fd5b80915050919050565b60006005600083815260200190815260200160002060009054906101000a900473ffffffffffffffffffffffffffffffffffffffff169050919050565b600033905090565b6110d18383836001611ba0565b505050565b6000806110e284611b63565b9050600073ffffffffffffffffffffffffffffffffffffffff168373ffffffffffffffffffffffffffffffffffffffff161461112457611123818486611d65565b5b600073ffffffffffffffffffffffffffffffffffffffff168173ffffffffffffffffffffffffffffffffffffffff16146111b557611166600085600080611ba0565b6001600460008373ffffffffffffffffffffffffffffffffffffffff1673ffffffffffffffffffffffffffffffffffffffff168152602001908152602001600020600082825403925050819055505b600073ffffffffffffffffffffffffffffffffffffffff168573ffffffffffffffffffffffffffffffffffffffff1614611238576001600460008773ffffffffffffffffffffffffffffffffffffffff1673ffffffffffffffffffffffffffffffffffffffff168152602001908152602001600020600082825401925050819055505b846003600086815260200190815260200160002060006101000a81548173ffffffffffffffffffffffffffffffffffffffff021916908373ffffffffffffffffffffffffffffffffffffffff160217905550838573ffffffffffffffffffffffffffffffffffffffff168273ffffffffffffffffffffffffffffffffffffffff167fddf252ad1be2c89b69c2b068fc378daa952ba7f163c4a11628f55a4df523b3ef60405160405180910390a4809150509392505050565b61130a828260405180602001604052806000815250611e29565b5050565b8060086000848152602001908152602001600020908161132e9190612d63565b505050565b61133b6110bc565b73ffffffffffffffffffffffffffffffffffffffff16611359610956565b73ffffffffffffffffffffffffffffffffffffffff16146113b85761137c6110bc565b6040517f118cdaa70000000000000000000000000000000000000000000000000000000081526004016113af919061255e565b60405180910390fd5b565b60008060009054906101000a900473ffffffffffffffffffffffffffffffffffffffff169050816000806101000a81548173ffffffffffffffffffffffffffffffffffffffff021916908373ffffffffffffffffffffffffffffffffffffffff1602179055508173ffffffffffffffffffffffffffffffffffffffff168173ffffffffffffffffffffffffffffffffffffffff167f8be0079c531659141344cd1fd0a4f28419497f9722a3daafe3b4186f6b6457e060405160405180910390a35050565b600061148d60008360006110d6565b9050600073ffffffffffffffffffffffffffffffffffffffff168173ffffffffffffffffffffffffffffffffffffffff160361150057816040517f7e2732890000000000000000000000000000000000000000000000000000000081526004016114f791906127c5565b60405180910390fd5b5050565b600080600090505b600960008573ffffffffffffffffffffffffffffffffffffffff1673ffffffffffffffffffffffffffffffffffffffff168152602001908152602001600020805490508110156117435782600960008673ffffffffffffffffffffffffffffffffffffffff1673ffffffffffffffffffffffffffffffffffffffff16815260200190815260200160002082815481106115a8576115a7612e95565b5b90600052602060002001540361173057600960008573ffffffffffffffffffffffffffffffffffffffff1673ffffffffffffffffffffffffffffffffffffffff1681526020019081526020016000206001600960008773ffffffffffffffffffffffffffffffffffffffff1673ffffffffffffffffffffffffffffffffffffffff168152602001908152602001600020805490506116469190612ec4565b8154811061165757611656612e95565b5b9060005260206000200154600960008673ffffffffffffffffffffffffffffffffffffffff1673ffffffffffffffffffffffffffffffffffffffff16815260200190815260200160002082815481106116b3576116b2612e95565b5b9060005260206000200181905550600960008573ffffffffffffffffffffffffffffffffffffffff1673ffffffffffffffffffffffffffffffffffffffff1681526020019081526020016000208054806117105761170f612ef8565b5b600190038181906000526020600020016000905590556001915050611749565b808061173b90612f27565b91505061150c565b50600090505b92915050565b61176a83838360405180602001604052806000815250611e45565b505050565b600073ffffffffffffffffffffffffffffffffffffffff168273ffffffffffffffffffffffffffffffffffffffff16036117e057816040517f5b08ba180000000000000000000000000000000000000000000000000000000081526004016117d7919061255e565b60405180910390fd5b80600660008573ffffffffffffffffffffffffffffffffffffffff1673ffffffffffffffffffffffffffffffffffffffff16815260200190815260200160002060008473ffffffffffffffffffffffffffffffffffffffff1673ffffffffffffffffffffffffffffffffffffffff16815260200190815260200160002060006101000a81548160ff0219169083151502179055508173ffffffffffffffffffffffffffffffffffffffff168373ffffffffffffffffffffffffffffffffffffffff167f17307eab39ab6107e8899845ad3d59bd9653f200f220920489ca2b5937696c31836040516118d191906123ed565b60405180910390a3505050565b60008373ffffffffffffffffffffffffffffffffffffffff163b1115611a8f578273ffffffffffffffffffffffffffffffffffffffff1663150b7a026119226110bc565b8685856040518563ffffffff1660e01b81526004016119449493929190612fc4565b6020604051808303816000875af192505050801561198057506040513d601f19601f8201168201806040525081019061197d9190613025565b60015b611a04573d80600081146119b0576040519150601f19603f3d011682016040523d82523d6000602084013e6119b5565b606091505b5060008151036119fc57836040517f64a0ae920000000000000000000000000000000000000000000000000000000081526004016119f3919061255e565b60405180910390fd5b805181602001fd5b63150b7a0260e01b7bffffffffffffffffffffffffffffffffffffffffffffffffffffffff1916817bffffffffffffffffffffffffffffffffffffffffffffffffffffffff191614611a8d57836040517f64a0ae92000000000000000000000000000000000000000000000000000000008152600401611a84919061255e565b60405180910390fd5b505b50505050565b606060006001611aa484611e62565b01905060008167ffffffffffffffff811115611ac357611ac2612642565b5b6040519080825280601f01601f191660200182016040528015611af55781602001600182028036833780820191505090505b509050600082602001820190505b600115611b58578080600190039150507f3031323334353637383961626364656600000000000000000000000000000000600a86061a8153600a8581611b4c57611b4b613052565b5b04945060008503611b03575b819350505050919050565b60006003600083815260200190815260200160002060009054906101000a900473ffffffffffffffffffffffffffffffffffffffff169050919050565b8080611bd95750600073ffffffffffffffffffffffffffffffffffffffff168273ffffffffffffffffffffffffffffffffffffffff1614155b15611d0d576000611be984610ff7565b9050600073ffffffffffffffffffffffffffffffffffffffff168373ffffffffffffffffffffffffffffffffffffffff1614158015611c5457508273ffffffffffffffffffffffffffffffffffffffff168173ffffffffffffffffffffffffffffffffffffffff1614155b8015611c675750611c658184610cf5565b155b15611ca957826040517fa9fbf51f000000000000000000000000000000000000000000000000000000008152600401611ca0919061255e565b60405180910390fd5b8115611d0b57838573ffffffffffffffffffffffffffffffffffffffff168273ffffffffffffffffffffffffffffffffffffffff167f8c5be1e5ebec7d5bd14f71427d1e84f3dd0314c0f7b2291e5b200ac8c7c3b92560405160405180910390a45b505b836005600085815260200190815260200160002060006101000a81548173ffffffffffffffffffffffffffffffffffffffff021916908373ffffffffffffffffffffffffffffffffffffffff16021790555050505050565b611d70838383611fb5565b611e2457600073ffffffffffffffffffffffffffffffffffffffff168373ffffffffffffffffffffffffffffffffffffffff1603611de557806040517f7e273289000000000000000000000000000000000000000000000000000000008152600401611ddc91906127c5565b60405180910390fd5b81816040517f177e802f000000000000000000000000000000000000000000000000000000008152600401611e1b929190613081565b60405180910390fd5b505050565b611e338383612076565b611e4060008484846118de565b505050565b611e5084848461216f565b611e5c848484846118de565b50505050565b600080600090507a184f03e93ff9f4daa797ed6e38ed64bf6a1f0100000000000000008310611ec0577a184f03e93ff9f4daa797ed6e38ed64bf6a1f0100000000000000008381611eb657611eb5613052565b5b0492506040810190505b6d04ee2d6d415b85acef81000000008310611efd576d04ee2d6d415b85acef81000000008381611ef357611ef2613052565b5b0492506020810190505b662386f26fc100008310611f2c57662386f26fc100008381611f2257611f21613052565b5b0492506010810190505b6305f5e1008310611f55576305f5e1008381611f4b57611f4a613052565b5b0492506008810190505b6127108310611f7a576127108381611f7057611f6f613052565b5b0492506004810190505b60648310611f9d5760648381611f9357611f92613052565b5b0492506002810190505b600a8310611fac576001810190505b80915050919050565b60008073ffffffffffffffffffffffffffffffffffffffff168373ffffffffffffffffffffffffffffffffffffffff161415801561206d57508273ffffffffffffffffffffffffffffffffffffffff168473ffffffffffffffffffffffffffffffffffffffff16148061202e575061202d8484610cf5565b5b8061206c57508273ffffffffffffffffffffffffffffffffffffffff166120548361107f565b73ffffffffffffffffffffffffffffffffffffffff16145b5b90509392505050565b600073ffffffffffffffffffffffffffffffffffffffff168273ffffffffffffffffffffffffffffffffffffffff16036120e85760006040517f64a0ae920000000000000000000000000000000000000000000000000000000081526004016120df919061255e565b60405180910390fd5b60006120f6838360006110d6565b9050600073ffffffffffffffffffffffffffffffffffffffff168173ffffffffffffffffffffffffffffffffffffffff161461216a5760006040517f73c6ac6e000000000000000000000000000000000000000000000000000000008152600401612161919061255e565b60405180910390fd5b505050565b600073ffffffffffffffffffffffffffffffffffffffff168273ffffffffffffffffffffffffffffffffffffffff16036121e15760006040517f64a0ae920000000000000000000000000000000000000000000000000000000081526004016121d8919061255e565b60405180910390fd5b60006121ef838360006110d6565b9050600073ffffffffffffffffffffffffffffffffffffffff168173ffffffffffffffffffffffffffffffffffffffff160361226257816040517f7e27328900000000000000000000000000000000000000000000000000000000815260040161225991906127c5565b60405180910390fd5b8373ffffffffffffffffffffffffffffffffffffffff168173ffffffffffffffffffffffffffffffffffffffff16146122d6578382826040517f64283d7b0000000000000000000000000000000000000000000000000000000081526004016122cd93929190612b1d565b60405180910390fd5b50505050565b5080546122e890612aec565b6000825580601f106122fa5750612319565b601f016020900490600052602060002090810190612318919061231c565b5b50565b5b8082111561233557600081600090555060010161231d565b5090565b6000604051905090565b600080fd5b600080fd5b60007fffffffff0000000000000000000000000000000000000000000000000000000082169050919050565b6123828161234d565b811461238d57600080fd5b50565b60008135905061239f81612379565b92915050565b6000602082840312156123bb576123ba612343565b5b60006123c984828501612390565b91505092915050565b60008115159050919050565b6123e7816123d2565b82525050565b600060208201905061240260008301846123de565b92915050565b600081519050919050565b600082825260208201905092915050565b60005b83811015612442578082015181840152602081019050612427565b60008484015250505050565b6000601f19601f8301169050919050565b600061246a82612408565b6124748185612413565b9350612484818560208601612424565b61248d8161244e565b840191505092915050565b600060208201905081810360008301526124b2818461245f565b905092915050565b6000819050919050565b6124cd816124ba565b81146124d857600080fd5b50565b6000813590506124ea816124c4565b92915050565b60006020828403121561250657612505612343565b5b6000612514848285016124db565b91505092915050565b600073ffffffffffffffffffffffffffffffffffffffff82169050919050565b60006125488261251d565b9050919050565b6125588161253d565b82525050565b6000602082019050612573600083018461254f565b92915050565b6125828161253d565b811461258d57600080fd5b50565b60008135905061259f81612579565b92915050565b600080604083850312156125bc576125bb612343565b5b60006125ca85828601612590565b92505060206125db858286016124db565b9150509250929050565b6000806000606084860312156125fe576125fd612343565b5b600061260c86828701612590565b935050602061261d86828701612590565b925050604061262e868287016124db565b9150509250925092565b600080fd5b600080fd5b7f4e487b7100000000000000000000000000000000000000000000000000000000600052604160045260246000fd5b61267a8261244e565b810181811067ffffffffffffffff8211171561269957612698612642565b5b80604052505050565b60006126ac612339565b90506126b88282612671565b919050565b600067ffffffffffffffff8211156126d8576126d7612642565b5b6126e18261244e565b9050602081019050919050565b82818337600083830152505050565b600061271061270b846126bd565b6126a2565b90508281526020810184848401111561272c5761272b61263d565b5b6127378482856126ee565b509392505050565b600082601f83011261275457612753612638565b5b81356127648482602086016126fd565b91505092915050565b60006020828403121561278357612782612343565b5b600082013567ffffffffffffffff8111156127a1576127a0612348565b5b6127ad8482850161273f565b91505092915050565b6127bf816124ba565b82525050565b60006020820190506127da60008301846127b6565b92915050565b6000602082840312156127f6576127f5612343565b5b600061280484828501612590565b91505092915050565b612816816123d2565b811461282157600080fd5b50565b6000813590506128338161280d565b92915050565b600080604083850312156128505761284f612343565b5b600061285e85828601612590565b925050602061286f85828601612824565b9150509250929050565b600067ffffffffffffffff82111561289457612893612642565b5b61289d8261244e565b9050602081019050919050565b60006128bd6128b884612879565b6126a2565b9050828152602081018484840111156128d9576128d861263d565b5b6128e48482856126ee565b509392505050565b600082601f83011261290157612900612638565b5b81356129118482602086016128aa565b91505092915050565b6000806000806080858703121561293457612933612343565b5b600061294287828801612590565b945050602061295387828801612590565b9350506040612964878288016124db565b925050606085013567ffffffffffffffff81111561298557612984612348565b5b612991878288016128ec565b91505092959194509250565b600080604083850312156129b4576129b3612343565b5b60006129c285828601612590565b92505060206129d385828601612590565b9150509250929050565b600081519050919050565b600082825260208201905092915050565b6000819050602082019050919050565b612a12816124ba565b82525050565b6000612a248383612a09565b60208301905092915050565b6000602082019050919050565b6000612a48826129dd565b612a5281856129e8565b9350612a5d836129f9565b8060005b83811015612a8e578151612a758882612a18565b9750612a8083612a30565b925050600181019050612a61565b5085935050505092915050565b60006020820190508181036000830152612ab58184612a3d565b905092915050565b7f4e487b7100000000000000000000000000000000000000000000000000000000600052602260045260246000fd5b60006002820490506001821680612b0457607f821691505b602082108103612b1757612b16612abd565b5b50919050565b6000606082019050612b32600083018661254f565b612b3f60208301856127b6565b612b4c604083018461254f565b949350505050565b7f4e487b7100000000000000000000000000000000000000000000000000000000600052601160045260246000fd5b6000612b8e826124ba565b9150612b99836124ba565b9250828201905080821115612bb157612bb0612b54565b5b92915050565b60008190508160005260206000209050919050565b60006020601f8301049050919050565b600082821b905092915050565b600060088302612c197fffffffffffffffffffffffffffffffffffffffffffffffffffffffffffffffff82612bdc565b612c238683612bdc565b95508019841693508086168417925050509392505050565b6000819050919050565b6000612c60612c5b612c56846124ba565b612c3b565b6124ba565b9050919050565b6000819050919050565b612c7a83612c45565b612c8e612c8682612c67565b848454612be9565b825550505050565b600090565b612ca3612c96565b612cae818484612c71565b505050565b5b81811015612cd257612cc7600082612c9b565b600181019050612cb4565b5050565b601f821115612d1757612ce881612bb7565b612cf184612bcc565b81016020851015612d00578190505b612d14612d0c85612bcc565b830182612cb3565b50505b505050565b600082821c905092915050565b6000612d3a60001984600802612d1c565b1980831691505092915050565b6000612d538383612d29565b9150826002028217905092915050565b612d6c82612408565b67ffffffffffffffff811115612d8557612d84612642565b5b612d8f8254612aec565b612d9a828285612cd6565b600060209050601f831160018114612dcd5760008415612dbb578287015190505b612dc58582612d47565b865550612e2d565b601f198416612ddb86612bb7565b60005b82811015612e0357848901518255600182019150602085019450602081019050612dde565b86831015612e205784890151612e1c601f891682612d29565b8355505b6001600288020188555050505b505050505050565b600081905092915050565b6000612e4b82612408565b612e558185612e35565b9350612e65818560208601612424565b80840191505092915050565b6000612e7d8285612e40565b9150612e898284612e40565b91508190509392505050565b7f4e487b7100000000000000000000000000000000000000000000000000000000600052603260045260246000fd5b6000612ecf826124ba565b9150612eda836124ba565b9250828203905081811115612ef257612ef1612b54565b5b92915050565b7f4e487b7100000000000000000000000000000000000000000000000000000000600052603160045260246000fd5b6000612f32826124ba565b91507fffffffffffffffffffffffffffffffffffffffffffffffffffffffffffffffff8203612f6457612f63612b54565b5b600182019050919050565b600081519050919050565b600082825260208201905092915050565b6000612f9682612f6f565b612fa08185612f7a565b9350612fb0818560208601612424565b612fb98161244e565b840191505092915050565b6000608082019050612fd9600083018761254f565b612fe6602083018661254f565b612ff360408301856127b6565b81810360608301526130058184612f8b565b905095945050505050565b60008151905061301f81612379565b92915050565b60006020828403121561303b5761303a612343565b5b600061304984828501613010565b91505092915050565b7f4e487b7100000000000000000000000000000000000000000000000000000000600052601260045260246000fd5b6000604082019050613096600083018561254f565b6130a360208301846127b6565b939250505056fea26469706673582212203ac3bdd429cb0b0549ee8e3816fa4b5c900f582d8fda87b95975a8a13af3a04464736f6c63430008140033",
  "linkReferences": {},
  "deployedLinkReferences": {}
}