{
  "contractName": "DocuMinter",
  "abi": [
    {
      "inputs": [],
      "stateMutability": "nonpayable",
      "type": "constructor"
    },
    {
      "inputs": [
        {
          "internalType": "address",
          "name": "sender",
          "type": "address"
        },
        {
          "internalType": "uint256",
          "name": "tokenId",
          "type": "uint256"
        },
        {
          "internalType": "address",
          "name": "owner",
          "type": "address"
        }
      ],
      "name": "ERC721IncorrectOwner",
      "type": "error"
    },
    {
      "inputs": [
        {
          "internalType": "address",
          "name": "operator",
          "type": "address"
        },
        {
          "internalType": "uint256",
          "name": "tokenId",
          "type": "uint256"
        }
      ],
      "name": "ERC721InsufficientApproval",
      "type": "error"
    },
    {
      "inputs": [
        {
          "internalType": "address",
          "name": "approver",
          "type": "address"
        }
      ],
      "name": "ERC721InvalidApprover",
      "type": "error"
    },
    {
      "inputs": [
        {
          "internalType": "address",
          "name": "operator",
          "type": "address"
        }
      ],
      "name": "ERC721InvalidOperator",
      "type": "error"
    },
    {
      "inputs": [
        {
          "internalType": "address",
          "name": "owner",
          "type": "address"
        }
      ],
      "name": "ERC721InvalidOwner",
      "type": "error"
    },
    {
      "inputs": [
        {
          "internalType": "address",
          "name": "receiver",
          "type": "address"
        }
      ],
      "name": "ERC721InvalidReceiver",
      "type": "error"
    },
    {
      "inputs": [
        {
          "internalType": "address",
          "name": "sender",
          "type": "address"
        }
      ],
      "name": "ERC721InvalidSender",
      "type": "error"
    },
    {
      "inputs": [
        {
          "internalType": "uint256",
          "name": "tokenId",
          "type": "uint256"
        }
      ],
      "name": "ERC721NonexistentToken",
      "type": "error"
    },
    {
      "inputs": [
        {
          "internalType": "address",
          "name": "owner",
          "type": "address"
        }
      ],
      "name": "OwnableInvalidOwner",
      "type": "error"
    },
    {
      "inputs": [
        {
          "internalType": "address",
          "name": "account",
          "type": "address"
        }
      ],
      "name": "OwnableUnauthorizedAccount",
      "type": "error"
    },
    {
      "anonymous": false,
      "inputs": [
        {
          "indexed": true,
          "internalType": "address",
          "name": "owner",
          "type": "address"
        },
        {
          "indexed": true,
          "internalType": "address",
          "name": "approved",
          "type": "address"
        },
        {
          "indexed": true,
          "internalType": "uint256",
          "name": "tokenId",
          "type": "uint256"
        }
      ],
      "name": "Approval",
      "type": "event"
    },
    {
      "anonymous": false,
      "inputs": [
        {
          "indexed": true,
          "internalType": "address",
          "name": "owner",
          "type": "address"
        },
        {
          "indexed": true,
          "internalType": "address",
          "name": "operator",
          "type": "address"
        },
        {
          "indexed": false,
          "internalType": "bool",
          "name": "approved",
          "type": "bool"
        }
      ],
      "name": "ApprovalForAll",
      "type": "event"
    },
    {
      "anonymous": false,
      "inputs": [
        {
          "indexed": true,
          "internalType": "address",
          "name": "previousOwner",
          "type": "address"
        },
        {
          "indexed": true,
          "internalType": "address",
          "name": "newOwner",
          "type": "address"
        }
      ],
      "name": "OwnershipTransferred",
      "type": "event"
    },
    {
      "anonymous": false,
      "inputs": [
        {
          "indexed": true,
          "internalType": "address",
          "name": "from",
          "type": "address"
        },
        {
          "indexed": true,
          "internalType": "address",
          "name": "to",
          "type": "address"
        },
        {
          "indexed": true,
          "internalType": "uint256",
          "name": "tokenId",
          "type": "uint256"
        }
      ],
      "name": "Transfer",
      "type": "event"
    },
    {
      "inputs": [
        {
          "internalType": "address",
          "name": "to",
          "type": "address"
        },
        {
          "internalType": "uint256",
          "name": "tokenId",
          "type": "uint256"
        }
      ],
      "name": "approve",
      "outputs": [],
      "stateMutability": "nonpayable",
      "type": "function"
    },
    {
      "inputs": [
        {
          "internalType": "address",
          "name": "owner",
          "type": "address"
        }
      ],
      "name": "balanceOf",
      "outputs": [
        {
          "internalType": "uint256",
          "name": "",
          "type": "uint256"
        }
      ],
      "stateMutability": "view",
      "type": "function"
    },
    {
      "inputs": [
        {
          "internalType": "uint256",
          "name": "tokenId",
          "type": "uint256"
        }
      ],
      "name": "getApproved",
      "outputs": [
        {
          "internalType": "address",
          "name": "",
          "type": "address"
        }
      ],
      "stateMutability": "view",
      "type": "function"
    },
    {
      "inputs": [
        {
          "internalType": "address",
          "name": "owner",
          "type": "address"
        },
        {
          "internalType": "address",
          "name": "operator",
          "type": "address"
        }
      ],
      "name": "isApprovedForAll",
      "outputs": [
        {
          "internalType": "bool",
          "name": "",
          "type": "bool"
        }
      ],
      "stateMutability": "view",
      "type": "function"
    },
    {
      "inputs": [],
      "name": "name",
      "outputs": [
        {
          "internalType": "string",
          "name": "",
          "type": "string"
        }
      ],
      "stateMutability": "view",
      "type": "function"
    },
    {
      "inputs": [],
      "name": "owner",
      "outputs": [
        {
          "internalType": "address",
          "name": "",
          "type": "address"
        }
      ],
      "stateMutability": "view",
      "type": "function"
    },
    {
      "inputs": [
        {
          "internalType": "uint256",
          "name": "tokenId",
          "type": "uint256"
        }
      ],
      "name": "ownerOf",
      "outputs": [
        {
          "internalType": "address",
          "name": "",
          "type": "address"
        }
      ],
      "stateMutability": "view",
      "type": "function"
    },
    {
      "inputs": [],
      "name": "renounceOwnership",
      "outputs": [],
      "stateMutability": "nonpayable",
      "type": "function"
    },
    {
      "inputs": [
        {
          "internalType": "address",
          "name": "from",
          "type": "address"
        },
        {
          "internalType": "address",
          "name": "to",
          "type": "address"
        },
        {
          "internalType": "uint256",
          "name": "tokenId",
          "type": "uint256"
        }
      ],
      "name": "safeTransferFrom",
      "outputs": [],
      "stateMutability": "nonpayable",
      "type": "function"
    },
    {
      "inputs": [
        {
          "internalType": "address",
          "name": "from",
          "type": "address"
        },
        {
          "internalType": "address",
          "name": "to",
          "type": "address"
        },
        {
          "internalType": "uint256",
          "name": "tokenId",
          "type": "uint256"
        },
        {
          "internalType": "bytes",
          "name": "data",
          "type": "bytes"
        }
      ],
      "name": "safeTransferFrom",
      "outputs": [],
      "stateMutability": "nonpayable",
      "type": "function"
    },
    {
      "inputs": [
        {
          "internalType": "address",
          "name": "operator",
          "type": "address"
        },
        {
          "internalType": "bool",
          "name": "approved",
          "type": "bool"
        }
      ],
      "name": "setApprovalForAll",
      "outputs": [],
      "stateMutability": "nonpayable",
      "type": "function"
    },
    {
      "inputs": [
        {
          "internalType": "bytes4",
          "name": "interfaceId",
          "type": "bytes4"
        }
      ],
      "name": "supportsInterface",
      "outputs": [
        {
          "internalType": "bool",
          "name": "",
          "type": "bool"
        }
      ],
      "stateMutability": "view",
      "type": "function"
    },
    {
      "inputs": [],
      "name": "symbol",
      "outputs": [
        {
          "internalType": "string",
          "name": "",
          "type": "string"
        }
      ],
      "stateMutability": "view",
      "type": "function"
    },
    {
      "inputs": [
        {
          "internalType": "address",
          "name": "from",
          "type": "address"
        },
        {
          "internalType": "address",
          "name": "to",
          "type": "address"
        },
        {
          "internalType": "uint256",
          "name": "tokenId",
          "type": "uint256"
        }
      ],
      "name": "transferFrom",
      "outputs": [],
      "stateMutability": "nonpayable",
      "type": "function"
    },
    {
      "inputs": [
        {
          "internalType": "address",
          "name": "newOwner",
          "type": "address"
        }
      ],
      "name": "transferOwnership",
      "outputs": [],
      "stateMutability": "nonpayable",
      "type": "function"
    },
    {
      "inputs": [
        {
          "internalType": "uint256",
          "name": "tokenId",
          "type": "uint256"
        }
      ],
      "name": "tokenURI",
      "outputs": [
        {
          "internalType": "string",
          "name": "",
          "type": "string"
        }
      ],
      "stateMutability": "view",
      "type": "function"
    },
    {
      "inputs": [
        {
          "internalType": "string",
          "name": "baseURI_",
          "type": "string"
        }
      ],
      "name": "setBaseURI",
      "outputs": [],
      "stateMutability": "nonpayable",
      "type": "function"
    },
    {
      "inputs": [
        {
          "internalType": "string",
          "name": "_tokenURI",
          "type": "string"
        }
      ],
      "name": "mintDoc",
      "outputs": [
        {
          "internalType": "uint256",
          "name": "",
          "type": "uint256"
        }
      ],
      "stateMutability": "nonpayable",
      "type": "function"
    },
    {
      "inputs": [],
      "name": "totalMinted",
      "outputs": [
        {
          "internalType": "uint256",
          "name": "",
          "type": "uint256"
        }
      ],
      "stateMutability": "view",
      "type": "function"
    }
  ],
  "bytecode": "0x608060405234801562000010575f80fd5b506040518060400160405280600a81526020017f446f63754d696e746564000000000000000000000000000000000000000000008152506040518060400160405280600581526020017f44434d4e54000000000000000000000000000000000000000000000000000000815250335f73ffffffffffffffffffffffffffffffffffffffff168173ffffffffffffffffffffffffffffffffffffffff1603620000f1575f6040517f1e4fbdf7000000000000000000000000000000000000000000000000000000008152600401620000e891906200023a565b60405180910390fd5b62000102816200013660201b60201c565b508160019081620001149190620004b9565b508060029081620001269190620004b9565b5050505f6007819055506200059d565b5f805f9054906101000a900473ffffffffffffffffffffffffffffffffffffffff169050815f806101000a81548173ffffffffffffffffffffffffffffffffffffffff021916908373ffffffffffffffffffffffffffffffffffffffff1602179055508173ffffffffffffffffffffffffffffffffffffffff168173ffffffffffffffffffffffffffffffffffffffff167f8be0079c531659141344cd1fd0a4f28419497f9722a3daafe3b4186f6b6457e060405160405180910390a35050565b5f73ffffffffffffffffffffffffffffffffffffffff82169050919050565b5f6200022282620001f7565b9050919050565b620002348162000216565b82525050565b5f6020820190506200024f5f83018462000229565b92915050565b5f81519050919050565b7f4e487b71000000000000000000000000000000000000000000000000000000005f52604160045260245ffd5b7f4e487b71000000000000000000000000000000000000000000000000000000005f52602260045260245ffd5b5f6002820490506001821680620002d157607f821691505b602082108103620002e757620002e66200028c565b5b50919050565b5f819050815f5260205f209050919050565b5f6020601f8301049050919050565b5f82821b905092915050565b5f600883026200034b7fffffffffffffffffffffffffffffffffffffffffffffffffffffffffffffffff826200030e565b6200035786836200030e565b95508019841693508086168417925050509392505050565b5f819050919050565b5f819050919050565b5f620003a16200039b62000395846200036f565b62000378565b6200036f565b9050919050565b5f819050919050565b620003bc8362000381565b620003d4620003cb82620003a8565b8484546200031a565b825550505050565b5f90565b620003ea620003dc565b620003f7818484620003b1565b505050565b5b818110156200041e57620004125f82620003e0565b600181019050620003fd565b5050565b601f8211156200046d576200043781620002ed565b6200044284620002ff565b8101602085101562000452578190505b6200046a6200046185620002ff565b830182620003fc565b50505b505050565b5f82821c905092915050565b5f6200048f5f198460080262000472565b1980831691505092915050565b5f620004a983836200047e565b9150826002028217905092915050565b620004c48262000255565b67ffffffffffffffff811115620004e057620004df6200025f565b5b620004ec8254620002b9565b620004f982828562000422565b5f60209050601f8311600181146200052f575f84156200051a578287015190505b6200052685826200049c565b86555062000595565b601f1984166200053f86620002ed565b5f5b82811015620005685784890151825560018201915060208501945060208101905062000541565b8683101562000588578489015162000584601f8916826200047e565b8355505b6001600288020188555050505b505050505050565b6124d280620005ab5f395ff3fe608060405234801561000f575f80fd5b506004361061011f575f3560e01c806370a08231116100ab578063a2309ff81161006f578063a2309ff814610303578063b88d4fde14610321578063c87b56dd1461033d578063e985e9c51461036d578063f2fde38b1461039d5761011f565b806370a0823114610271578063715018a6146102a15780638da5cb5b146102ab57806395d89b41146102c9578063a22cb465146102e75761011f565b806323b872dd116100f257806323b872dd146101bd57806342842e0e146101d9578063439a2bdb146101f557806355f804b3146102255780636352211e146102415761011f565b806301ffc9a71461012357806306fdde0314610153578063081812fc14610171578063095ea7b3146101a1575b5f80fd5b61013d600480360381019061013891906118dd565b6103b9565b60405161014a9190611922565b60405180910390f35b61015b61049a565b60405161016891906119c5565b60405180910390f35b61018b60048036038101906101869190611a18565b61052a565b6040516101989190611a82565b60405180910390f35b6101bb60048036038101906101b69190611ac5565b610545565b005b6101d760048036038101906101d29190611b03565b61055b565b005b6101f360048036038101906101ee9190611b03565b61065a565b005b61020f600480360381019061020a9190611c7f565b610679565b60405161021c9190611cd5565b60405180910390f35b61023f600480360381019061023a9190611c7f565b6106b6565b005b61025b60048036038101906102569190611a18565b6106d1565b6040516102689190611a82565b60405180910390f35b61028b60048036038101906102869190611cee565b6106e2565b6040516102989190611cd5565b60405180910390f35b6102a9610798565b005b6102b36107ab565b6040516102c09190611a82565b60405180910390f35b6102d16107d2565b6040516102de91906119c5565b60405180910390f35b61030160048036038101906102fc9190611d43565b610862565b005b61030b610878565b6040516103189190611cd5565b60405180910390f35b61033b60048036038101906103369190611e1f565b610881565b005b61035760048036038101906103529190611a18565b61089e565b60405161036491906119c5565b60405180910390f35b61038760048036038101906103829190611e9f565b6108d2565b6040516103949190611922565b60405180910390f35b6103b760048036038101906103b29190611cee565b610960565b005b5f7f80ac58cd000000000000000000000000000000000000000000000000000000007bffffffffffffffffffffffffffffffffffffffffffffffffffffffff1916827bffffffffffffffffffffffffffffffffffffffffffffffffffffffff1916148061048357507f5b5e139f000000000000000000000000000000000000000000000000000000007bffffffffffffffffffffffffffffffffffffffffffffffffffffffff1916827bffffffffffffffffffffffffffffffffffffffffffffffffffffffff1916145b806104935750610492826109e4565b5b9050919050565b6060600180546104a990611f0a565b80601f01602080910402602001604051908101604052809291908181526020018280546104d590611f0a565b80156105205780601f106104f757610100808354040283529160200191610520565b820191905f5260205f20905b81548152906001019060200180831161050357829003601f168201915b5050505050905090565b5f61053482610a4d565b5061053e82610ad3565b9050919050565b6105578282610552610b0c565b610b13565b5050565b5f73ffffffffffffffffffffffffffffffffffffffff168273ffffffffffffffffffffffffffffffffffffffff16036105cb575f6040517f64a0ae920000000000000000000000000000000000000000000000000000000081526004016105c29190611a82565b60405180910390fd5b5f6105de83836105d9610b0c565b610b25565b90508373ffffffffffffffffffffffffffffffffffffffff168173ffffffffffffffffffffffffffffffffffffffff1614610654578382826040517f64283d7b00000000000000000000000000000000000000000000000000000000815260040161064b93929190611f3a565b60405180910390fd5b50505050565b61067483838360405180602001604052805f815250610881565b505050565b5f600160075f82825461068c9190611f9c565b925050819055505f60075490506106a33382610d30565b6106ad8184610d4d565b80915050919050565b6106be610d70565b80600990816106cd919061216c565b5050565b5f6106db82610a4d565b9050919050565b5f8073ffffffffffffffffffffffffffffffffffffffff168273ffffffffffffffffffffffffffffffffffffffff1603610753575f6040517f89c62b6400000000000000000000000000000000000000000000000000000000815260040161074a9190611a82565b60405180910390fd5b60045f8373ffffffffffffffffffffffffffffffffffffffff1673ffffffffffffffffffffffffffffffffffffffff1681526020019081526020015f20549050919050565b6107a0610d70565b6107a95f610df7565b565b5f805f9054906101000a900473ffffffffffffffffffffffffffffffffffffffff16905090565b6060600280546107e190611f0a565b80601f016020809104026020016040519081016040528092919081815260200182805461080d90611f0a565b80156108585780601f1061082f57610100808354040283529160200191610858565b820191905f5260205f20905b81548152906001019060200180831161083b57829003601f168201915b5050505050905090565b61087461086d610b0c565b8383610eb8565b5050565b5f600754905090565b61088c84848461055b565b61089884848484611021565b50505050565b606060096108ab836111d3565b6040516020016108bc92919061233f565b6040516020818303038152906040529050919050565b5f60065f8473ffffffffffffffffffffffffffffffffffffffff1673ffffffffffffffffffffffffffffffffffffffff1681526020019081526020015f205f8373ffffffffffffffffffffffffffffffffffffffff1673ffffffffffffffffffffffffffffffffffffffff1681526020019081526020015f205f9054906101000a900460ff16905092915050565b610968610d70565b5f73ffffffffffffffffffffffffffffffffffffffff168173ffffffffffffffffffffffffffffffffffffffff16036109d8575f6040517f1e4fbdf70000000000000000000000000000000000000000000000000000000081526004016109cf9190611a82565b60405180910390fd5b6109e181610df7565b50565b5f7f01ffc9a7000000000000000000000000000000000000000000000000000000007bffffffffffffffffffffffffffffffffffffffffffffffffffffffff1916827bffffffffffffffffffffffffffffffffffffffffffffffffffffffff1916149050919050565b5f80610a588361129d565b90505f73ffffffffffffffffffffffffffffffffffffffff168173ffffffffffffffffffffffffffffffffffffffff1603610aca57826040517f7e273289000000000000000000000000000000000000000000000000000000008152600401610ac19190611cd5565b60405180910390fd5b80915050919050565b5f60055f8381526020019081526020015f205f9054906101000a900473ffffffffffffffffffffffffffffffffffffffff169050919050565b5f33905090565b610b2083838360016112d6565b505050565b5f80610b308461129d565b90505f73ffffffffffffffffffffffffffffffffffffffff168373ffffffffffffffffffffffffffffffffffffffff1614610b7157610b70818486611495565b5b5f73ffffffffffffffffffffffffffffffffffffffff168173ffffffffffffffffffffffffffffffffffffffff1614610bfc57610bb05f855f806112d6565b600160045f8373ffffffffffffffffffffffffffffffffffffffff1673ffffffffffffffffffffffffffffffffffffffff1681526020019081526020015f205f82825403925050819055505b5f73ffffffffffffffffffffffffffffffffffffffff168573ffffffffffffffffffffffffffffffffffffffff1614610c7b57600160045f8773ffffffffffffffffffffffffffffffffffffffff1673ffffffffffffffffffffffffffffffffffffffff1681526020019081526020015f205f82825401925050819055505b8460035f8681526020019081526020015f205f6101000a81548173ffffffffffffffffffffffffffffffffffffffff021916908373ffffffffffffffffffffffffffffffffffffffff160217905550838573ffffffffffffffffffffffffffffffffffffffff168273ffffffffffffffffffffffffffffffffffffffff167fddf252ad1be2c89b69c2b068fc378daa952ba7f163c4a11628f55a4df523b3ef60405160405180910390a4809150509392505050565b610d49828260405180602001604052805f815250611558565b5050565b8060085f8481526020019081526020015f209081610d6b919061216c565b505050565b610d78610b0c565b73ffffffffffffffffffffffffffffffffffffffff16610d966107ab565b73ffffffffffffffffffffffffffffffffffffffff1614610df557610db9610b0c565b6040517f118cdaa7000000000000000000000000000000000000000000000000000000008152600401610dec9190611a82565b60405180910390fd5b565b5f805f9054906101000a900473ffffffffffffffffffffffffffffffffffffffff169050815f806101000a81548173ffffffffffffffffffffffffffffffffffffffff021916908373ffffffffffffffffffffffffffffffffffffffff1602179055508173ffffffffffffffffffffffffffffffffffffffff168173ffffffffffffffffffffffffffffffffffffffff167f8be0079c531659141344cd1fd0a4f28419497f9722a3daafe3b4186f6b6457e060405160405180910390a35050565b5f73ffffffffffffffffffffffffffffffffffffffff168273ffffffffffffffffffffffffffffffffffffffff1603610f2857816040517f5b08ba18000000000000000000000000000000000000000000000000000000008152600401610f1f9190611a82565b60405180910390fd5b8060065f8573ffffffffffffffffffffffffffffffffffffffff1673ffffffffffffffffffffffffffffffffffffffff1681526020019081526020015f205f8473ffffffffffffffffffffffffffffffffffffffff1673ffffffffffffffffffffffffffffffffffffffff1681526020019081526020015f205f6101000a81548160ff0219169083151502179055508173ffffffffffffffffffffffffffffffffffffffff168373ffffffffffffffffffffffffffffffffffffffff167f17307eab39ab6107e8899845ad3d59bd9653f200f220920489ca2b5937696c31836040516110149190611922565b60405180910390a3505050565b5f8373ffffffffffffffffffffffffffffffffffffffff163b11156111cd578273ffffffffffffffffffffffffffffffffffffffff1663150b7a02611064610b0c565b8685856040518563ffffffff1660e01b815260040161108694939291906123bf565b6020604051808303815f875af19250505080156110c157506040513d601f19601f820116820180604052508101906110be919061241d565b60015b611142573d805f81146110ef576040519150601f19603f3d011682016040523d82523d5f602084013e6110f4565b606091505b505f81510361113a57836040517f64a0ae920000000000000000000000000000000000000000000000000000000081526004016111319190611a82565b60405180910390fd5b805181602001fd5b63150b7a0260e01b7bffffffffffffffffffffffffffffffffffffffffffffffffffffffff1916817bffffffffffffffffffffffffffffffffffffffffffffffffffffffff1916146111cb57836040517f64a0ae920000000000000000000000000000000000000000000000000000000081526004016111c29190611a82565b60405180910390fd5b505b50505050565b60605f60016111e184611573565b0190505f8167ffffffffffffffff8111156111ff576111fe611b5b565b5b6040519080825280601f01601f1916602001820160405280156112315781602001600182028036833780820191505090505b5090505f82602001820190505b600115611292578080600190039150507f3031323334353637383961626364656600000000000000000000000000000000600a86061a8153600a858161128757611286612448565b5b0494505f850361123e575b819350505050919050565b5f60035f8381526020019081526020015f205f9054906101000a900473ffffffffffffffffffffffffffffffffffffffff169050919050565b808061130e57505f73ffffffffffffffffffffffffffffffffffffffff168273ffffffffffffffffffffffffffffffffffffffff1614155b15611440575f61131d84610a4d565b90505f73ffffffffffffffffffffffffffffffffffffffff168373ffffffffffffffffffffffffffffffffffffffff161415801561138757508273ffffffffffffffffffffffffffffffffffffffff168173ffffffffffffffffffffffffffffffffffffffff1614155b801561139a575061139881846108d2565b155b156113dc57826040517fa9fbf51f0000000000000000000000000000000000000000000000000000000081526004016113d39190611a82565b60405180910390fd5b811561143e57838573ffffffffffffffffffffffffffffffffffffffff168273ffffffffffffffffffffffffffffffffffffffff167f8c5be1e5ebec7d5bd14f71427d1e84f3dd0314c0f7b2291e5b200ac8c7c3b92560405160405180910390a45b505b8360055f8581526020019081526020015f205f6101000a81548173ffffffffffffffffffffffffffffffffffffffff021916908373ffffffffffffffffffffffffffffffffffffffff16021790555050505050565b6114a08383836116c4565b611553575f73ffffffffffffffffffffffffffffffffffffffff168373ffffffffffffffffffffffffffffffffffffffff160361151457806040517f7e27328900000000000000000000000000000000000000000000000000000000815260040161150b9190611cd5565b60405180910390fd5b81816040517f177e802f00000000000000000000000000000000000000000000000000000000815260040161154a929190612475565b60405180910390fd5b505050565b6115628383611784565b61156e5f848484611021565b505050565b5f805f90507a184f03e93ff9f4daa797ed6e38ed64bf6a1f01000000000000000083106115cf577a184f03e93ff9f4daa797ed6e38ed64bf6a1f01000000000000000083816115c5576115c4612448565b5b0492506040810190505b6d04ee2d6d415b85acef8100000000831061160c576d04ee2d6d415b85acef8100000000838161160257611601612448565b5b0492506020810190505b662386f26fc10000831061163b57662386f26fc10000838161163157611630612448565b5b0492506010810190505b6305f5e1008310611664576305f5e100838161165a57611659612448565b5b0492506008810190505b612710831061168957612710838161167f5761167e612448565b5b0492506004810190505b606483106116ac57606483816116a2576116a1612448565b5b0492506002810190505b600a83106116bb576001810190505b80915050919050565b5f8073ffffffffffffffffffffffffffffffffffffffff168373ffffffffffffffffffffffffffffffffffffffff161415801561177b57508273ffffffffffffffffffffffffffffffffffffffff168473ffffffffffffffffffffffffffffffffffffffff16148061173c575061173b84846108d2565b5b8061177a57508273ffffffffffffffffffffffffffffffffffffffff1661176283610ad3565b73ffffffffffffffffffffffffffffffffffffffff16145b5b90509392505050565b5f73ffffffffffffffffffffffffffffffffffffffff168273ffffffffffffffffffffffffffffffffffffffff16036117f4575f6040517f64a0ae920000000000000000000000000000000000000000000000000000000081526004016117eb9190611a82565b60405180910390fd5b5f61180083835f610b25565b90505f73ffffffffffffffffffffffffffffffffffffffff168173ffffffffffffffffffffffffffffffffffffffff1614611872575f6040517f73c6ac6e0000000000000000000000000000000000000000000000000000000081526004016118699190611a82565b60405180910390fd5b505050565b5f604051905090565b5f80fd5b5f80fd5b5f7fffffffff0000000000000000000000000000000000000000000000000000000082169050919050565b6118bc81611888565b81146118c6575f80fd5b50565b5f813590506118d7816118b3565b92915050565b5f602082840312156118f2576118f1611880565b5b5f6118ff848285016118c9565b91505092915050565b5f8115159050919050565b61191c81611908565b82525050565b5f6020820190506119355f830184611913565b92915050565b5f81519050919050565b5f82825260208201905092915050565b5f5b83811015611972578082015181840152602081019050611957565b5f8484015250505050565b5f601f19601f8301169050919050565b5f6119978261193b565b6119a18185611945565b93506119b1818560208601611955565b6119ba8161197d565b840191505092915050565b5f6020820190508181035f8301526119dd818461198d565b905092915050565b5f819050919050565b6119f7816119e5565b8114611a01575f80fd5b50565b5f81359050611a12816119ee565b92915050565b5f60208284031215611a2d57611a2c611880565b5b5f611a3a84828501611a04565b91505092915050565b5f73ffffffffffffffffffffffffffffffffffffffff82169050919050565b5f611a6c82611a43565b9050919050565b611a7c81611a62565b82525050565b5f602082019050611a955f830184611a73565b92915050565b611aa481611a62565b8114611aae575f80fd5b50565b5f81359050611abf81611a9b565b92915050565b5f8060408385031215611adb57611ada611880565b5b5f611ae885828601611ab1565b9250506020611af985828601611a04565b9150509250929050565b5f805f60608486031215611b1a57611b19611880565b5b5f611b2786828701611ab1565b9350506020611b3886828701611ab1565b9250506040611b4986828701611a04565b9150509250925092565b5f80fd5b5f80fd5b7f4e487b71000000000000000000000000000000000000000000000000000000005f52604160045260245ffd5b611b918261197d565b810181811067ffffffffffffffff82111715611bb057611baf611b5b565b5b80604052505050565b5f611bc2611877565b9050611bce8282611b88565b919050565b5f67ffffffffffffffff821115611bed57611bec611b5b565b5b611bf68261197d565b9050602081019050919050565b828183375f83830152505050565b5f611c23611c1e84611bd3565b611bb9565b905082815260208101848484011115611c3f57611c3e611b57565b5b611c4a848285611c03565b509392505050565b5f82601f830112611c6657611c65611b53565b5b8135611c76848260208601611c11565b91505092915050565b5f60208284031215611c9457611c93611880565b5b5f82013567ffffffffffffffff811115611cb157611cb0611884565b5b611cbd84828501611c52565b91505092915050565b611ccf816119e5565b82525050565b5f602082019050611ce85f830184611cc6565b92915050565b5f60208284031215611d0357611d02611880565b5b5f611d1084828501611ab1565b91505092915050565b611d2281611908565b8114611d2c575f80fd5b50565b5f81359050611d3d81611d19565b92915050565b5f8060408385031215611d5957611d58611880565b5b5f611d6685828601611ab1565b9250506020611d7785828601611d2f565b9150509250929050565b5f67ffffffffffffffff821115611d9b57611d9a611b5b565b5b611da48261197d565b9050602081019050919050565b5f611dc3611dbe84611d81565b611bb9565b905082815260208101848484011115611ddf57611dde611b57565b5b611dea848285611c03565b509392505050565b5f82601f830112611e0657611e05611b53565b5b8135611e16848260208601611db1565b91505092915050565b5f805f8060808587031215611e3757611e36611880565b5b5f611e4487828801611ab1565b9450506020611e5587828801611ab1565b9350506040611e6687828801611a04565b925050606085013567ffffffffffffffff811115611e8757611e86611884565b5b611e9387828801611df2565b91505092959194509250565b5f8060408385031215611eb557611eb4611880565b5b5f611ec285828601611ab1565b9250506020611ed385828601611ab1565b9150509250929050565b7f4e487b71000000000000000000000000000000000000000000000000000000005f52602260045260245ffd5b5f6002820490506001821680611f2157607f821691505b602082108103611f3457611f33611edd565b5b50919050565b5f606082019050611f4d5f830186611a73565b611f5a6020830185611cc6565b611f676040830184611a73565b949350505050565b7f4e487b71000000000000000000000000000000000000000000000000000000005f52601160045260245ffd5b5f611fa6826119e5565b9150611fb1836119e5565b9250828201905080821115611fc957611fc8611f6f565b5b92915050565b5f819050815f5260205f209050919050565b5f6020601f8301049050919050565b5f82821b905092915050565b5f6008830261202b7fffffffffffffffffffffffffffffffffffffffffffffffffffffffffffffffff82611ff0565b6120358683611ff0565b95508019841693508086168417925050509392505050565b5f819050919050565b5f61207061206b612066846119e5565b61204d565b6119e5565b9050919050565b5f819050919050565b61208983612056565b61209d61209582612077565b848454611ffc565b825550505050565b5f90565b6120b16120a5565b6120bc818484612080565b505050565b5b818110156120df576120d45f826120a9565b6001810190506120c2565b5050565b601f821115612124576120f581611fcf565b6120fe84611fe1565b8101602085101561210d578190505b61212161211985611fe1565b8301826120c1565b50505b505050565b5f82821c905092915050565b5f6121445f1984600802612129565b1980831691505092915050565b5f61215c8383612135565b9150826002028217905092915050565b6121758261193b565b67ffffffffffffffff81111561218e5761218d611b5b565b5b6121988254611f0a565b6121a38282856120e3565b5f60209050601f8311600181146121d4575f84156121c2578287015190505b6121cc8582612151565b865550612233565b601f1984166121e286611fcf565b5f5b82811015612209578489015182556001820191506020850194506020810190506121e4565b868310156122265784890151612222601f891682612135565b8355505b6001600288020188555050505b505050505050565b5f81905092915050565b5f815461225181611f0a565b61225b818661223b565b9450600182165f8114612275576001811461228a576122bc565b60ff19831686528115158202860193506122bc565b61229385611fcf565b5f5b838110156122b457815481890152600182019150602081019050612295565b838801955050505b50505092915050565b5f6122cf8261193b565b6122d9818561223b565b93506122e9818560208601611955565b80840191505092915050565b7f2e6a736f6e0000000000000000000000000000000000000000000000000000005f82015250565b5f61232960058361223b565b9150612334826122f5565b600582019050919050565b5f61234a8285612245565b915061235682846122c5565b91506123618261231d565b91508190509392505050565b5f81519050919050565b5f82825260208201905092915050565b5f6123918261236d565b61239b8185612377565b93506123ab818560208601611955565b6123b48161197d565b840191505092915050565b5f6080820190506123d25f830187611a73565b6123df6020830186611a73565b6123ec6040830185611cc6565b81810360608301526123fe8184612387565b905095945050505050565b5f81519050612417816118b3565b92915050565b5f6020828403121561243257612431611880565b5b5f61243f84828501612409565b91505092915050565b7f4e487b71000000000000000000000000000000000000000000000000000000005f52601260045260245ffd5b5f6040820190506124885f830185611a73565b6124956020830184611cc6565b939250505056fea26469706673582212208d486ea2cd9f46970fe0eaa7e2628614015b3f4bf57fc0f409ec6fe0ccb71eb364736f6c63430008140033",
  "immutableReferences": {},
  "source": "// SPDX-License-Identifier: SEE LICENSE IN LICENSE\r\npragma solidity ^0.8.8;\r\n\r\nimport \"@openzeppelin/contracts/token/ERC721/ERC721.sol\";\r\nimport \"@openzeppelin/contracts/access/Ownable.sol\";\r\n\r\n//Mint NFT from passed URI\r\n//transfer documents ownership\r\n//Improve token URI storage\r\ncontract DocuMinter is Ownable, ERC721 {\r\n    uint256 private s_tokenCounter;\r\n    using Strings for uint256;\r\n    //URI accsess\r\n    mapping(uint256 => string) private _tokenURIs;\r\n\r\n    string private _baseURIextended;\r\n\r\n    constructor() ERC721(\"DocuMinted\", \"DCMNT\") Ownable(msg.sender) {\r\n        s_tokenCounter = 0;\r\n    }\r\n\r\n    function tokenURI(\r\n        uint256 tokenId\r\n    ) public view virtual override returns (string memory) {\r\n        return\r\n            string(\r\n                abi.encodePacked(\r\n                    _baseURIextended,\r\n                    Strings.toString(tokenId),\r\n                    \".json\"\r\n                )\r\n            );\r\n    }\r\n\r\n    function setBaseURI(string memory baseURI_) external onlyOwner {\r\n        _baseURIextended = baseURI_;\r\n    }\r\n\r\n    function _setTokenURI(\r\n        uint256 tokenId,\r\n        string memory _tokenURI\r\n    ) internal virtual {\r\n        _tokenURIs[tokenId] = _tokenURI;\r\n    }\r\n\r\n    function mintDoc(string memory _tokenURI) public returns (uint256) {\r\n        s_tokenCounter += 1;\r\n        uint256 newId = s_tokenCounter;\r\n        _safeMint(msg.sender, newId);\r\n        _setTokenURI(newId, _tokenURI);\r\n        return newId;\r\n    }\r\n\r\n    function totalMinted() public view returns (uint256) {\r\n        return s_tokenCounter;\r\n    }\r\n}\r\n",
  "sourcePath": "C:\\Users\\miste\\OneDrive - BCIT\\BCIT\\2800_2024\\2800Project\\contracts\\DocuMinter.sol",
  "compiler": {
    "name": "solc",
    "version": "0.8.20+commit.a1b79de6.Emscripten.clang"
  },
  "schemaVersion": "3.4.16",
  "updatedAt": "2024-05-12T23:29:17.049Z",
  "devdoc": {
    "errors": {
      "ERC721IncorrectOwner(address,uint256,address)": [
        {
          "details": "Indicates an error related to the ownership over a particular token. Used in transfers.",
          "params": {
            "owner": "Address of the current owner of a token.",
            "sender": "Address whose tokens are being transferred.",
            "tokenId": "Identifier number of a token."
          }
        }
      ],
      "ERC721InsufficientApproval(address,uint256)": [
        {
          "details": "Indicates a failure with the `operator`s approval. Used in transfers.",
          "params": {
            "operator": "Address that may be allowed to operate on tokens without being their owner.",
            "tokenId": "Identifier number of a token."
          }
        }
      ],
      "ERC721InvalidApprover(address)": [
        {
          "details": "Indicates a failure with the `approver` of a token to be approved. Used in approvals.",
          "params": {
            "approver": "Address initiating an approval operation."
          }
        }
      ],
      "ERC721InvalidOperator(address)": [
        {
          "details": "Indicates a failure with the `operator` to be approved. Used in approvals.",
          "params": {
            "operator": "Address that may be allowed to operate on tokens without being their owner."
          }
        }
      ],
      "ERC721InvalidOwner(address)": [
        {
          "details": "Indicates that an address can't be an owner. For example, `address(0)` is a forbidden owner in EIP-20. Used in balance queries.",
          "params": {
            "owner": "Address of the current owner of a token."
          }
        }
      ],
      "ERC721InvalidReceiver(address)": [
        {
          "details": "Indicates a failure with the token `receiver`. Used in transfers.",
          "params": {
            "receiver": "Address to which tokens are being transferred."
          }
        }
      ],
      "ERC721InvalidSender(address)": [
        {
          "details": "Indicates a failure with the token `sender`. Used in transfers.",
          "params": {
            "sender": "Address whose tokens are being transferred."
          }
        }
      ],
      "ERC721NonexistentToken(uint256)": [
        {
          "details": "Indicates a `tokenId` whose `owner` is the zero address.",
          "params": {
            "tokenId": "Identifier number of a token."
          }
        }
      ],
      "OwnableInvalidOwner(address)": [
        {
          "details": "The owner is not a valid owner account. (eg. `address(0)`)"
        }
      ],
      "OwnableUnauthorizedAccount(address)": [
        {
          "details": "The caller account is not authorized to perform an operation."
        }
      ]
    },
    "events": {
      "Approval(address,address,uint256)": {
        "details": "Emitted when `owner` enables `approved` to manage the `tokenId` token."
      },
      "ApprovalForAll(address,address,bool)": {
        "details": "Emitted when `owner` enables or disables (`approved`) `operator` to manage all of its assets."
      },
      "Transfer(address,address,uint256)": {
        "details": "Emitted when `tokenId` token is transferred from `from` to `to`."
      }
    },
    "kind": "dev",
    "methods": {
      "approve(address,uint256)": {
        "details": "See {IERC721-approve}."
      },
      "balanceOf(address)": {
        "details": "See {IERC721-balanceOf}."
      },
      "getApproved(uint256)": {
        "details": "See {IERC721-getApproved}."
      },
      "isApprovedForAll(address,address)": {
        "details": "See {IERC721-isApprovedForAll}."
      },
      "name()": {
        "details": "See {IERC721Metadata-name}."
      },
      "owner()": {
        "details": "Returns the address of the current owner."
      },
      "ownerOf(uint256)": {
        "details": "See {IERC721-ownerOf}."
      },
      "renounceOwnership()": {
        "details": "Leaves the contract without owner. It will not be possible to call `onlyOwner` functions. Can only be called by the current owner. NOTE: Renouncing ownership will leave the contract without an owner, thereby disabling any functionality that is only available to the owner."
      },
      "safeTransferFrom(address,address,uint256)": {
        "details": "See {IERC721-safeTransferFrom}."
      },
      "safeTransferFrom(address,address,uint256,bytes)": {
        "details": "See {IERC721-safeTransferFrom}."
      },
      "setApprovalForAll(address,bool)": {
        "details": "See {IERC721-setApprovalForAll}."
      },
      "supportsInterface(bytes4)": {
        "details": "See {IERC165-supportsInterface}."
      },
      "symbol()": {
        "details": "See {IERC721Metadata-symbol}."
      },
      "tokenURI(uint256)": {
        "details": "See {IERC721Metadata-tokenURI}."
      },
      "transferFrom(address,address,uint256)": {
        "details": "See {IERC721-transferFrom}."
      },
      "transferOwnership(address)": {
        "details": "Transfers ownership of the contract to a new account (`newOwner`). Can only be called by the current owner."
      }
    },
    "version": 1
  },
  "userdoc": {
    "kind": "user",
    "methods": {},
    "version": 1
  }
}